:100000004CC00000B1C30000C0C40000ECC400003C
:10001000F8C5000061C000005FC000005DC00000C6
:100020005BC0000059C0000057C0000055C0000070
:1000300053C0000051C000004FC0000067C3000063
:100040004BC0000049C0000047C0000045C0000090
:1000500043C0000041C000003FC000003DC00000A0
:100060003BC0000039C0000037C0000035C00000B0
:1000700033C0000031C000002FC000002DC00000C0
:100080002BC0000029C0000027C0000098079C0773
:10009000A007A407A807AC07B00711241FBECFEF25
:1000A000D0E1DEBFCDBF11E0A0E0B1E0E6E1F6E1D6
:1000B00000E00BBF02C007900D92AA3DB107D9F72F
:1000C00021E0AAEDB1E001C01D92A23FB207E1F725
:1000D0000E943F0A0C94090B93CFE5E6F0E0908173
:1000E0009460908390819D7F9083908191609083B4
:1000F00096EF9A95F1F78BBB86EF8A95F1F78081A1
:100100008E7F80830895E5E6F0E090819B7F908369
:1001100090819D7F908390819160908396EF9A95D6
:10012000F1F78BBB86EF8A95F1F780818E7F808314
:100130000895D3DF8CEC9CE10197F1F700C000003B
:100140000895CF93DF93EC018881882329F02196CD
:10015000F0DF89918111FCCFDF91CF91089581E08B
:10016000D2DF8CEC9CE10197F1F700C0000008950C
:1001700088E3C9DF8CEC9CE10197F1F700C0000037
:1001800088E3C1DF8CEC9CE10197F1F700C000002F
:1001900088E3B9DF8CEC9CE10197F1F700C0000027
:1001A0008EE0B1DF8CEC9CE10197F1F700C000001C
:1001B00086E0A9DF8CEC9CE10197F1F700C000001C
:1001C000CECF089582E09FDF8CEC9CE10197F1F7A0
:1001D00000C00000089582E087BF8FE083BF8FE8F2
:1001E00081BF08958FEF8ABB9FE09093640087BB27
:1001F00088BB11BA08958FEF89BF8AEA80936A009D
:100200008ABF789408959C0183709927892B91F473
:10021000C90164E670E00E94CA0A892B69F4C90129
:1002200060E971E00E94CA0A9C0181E0232B29F059
:1002300080E0089580E0089581E008950F931F9372
:10024000CF93DF93CDB7DEB768970FB6F894DEBFD4
:100250000FBECDBF8C0198E1E3E2F1E0DE01119623
:1002600001900D929A95E1F70230110521F4CB012E
:10027000CADF811109C0F8013197EE0FFF1FEC0FA3
:10028000FD1F8181928102C08DE190E068960FB6DA
:10029000F894DEBF0FBECDBFDF91CF911F910F91BC
:1002A00008951092DF011092DE011092DD0110928C
:1002B000DC01109208011092070181E08093060191
:1002C0001092DB012091EA013091EB0130930101A2
:1002D00020930001E2E0F1E01082118282838383A7
:1002E00008951F93CF93DF938091E1018F5F843650
:1002F00019F08093E10154C01092E1018091EC016A
:100300008F5F8093EC018C3338F08091E9018F5F2F
:100310008093E9011092EC018091E9018C3338F06F
:100320008091E7018F5F8093E7011092E90180914E
:10033000E701883160F08091ED018F5F8093ED01DE
:100340008091E8018F5F8093E8011092E70180912E
:10035000E801883018F081E08093E801C091EA015B
:10036000D091EB011091E201BE01812F90E066DF98
:100370002091ED0130E08217930734F41F5F109352
:10038000E20181E08093ED018091E2018D3040F047
:100390002196D093EB01C093EA0181E08093E201C2
:1003A000DF91CF911F9108958091F0019091F1011B
:1003B00001968436910528F49093F1018093F00121
:1003C00008951092F1011092F0018091E501909151
:1003D000E60101969093E6018093E501CC9768F0E1
:1003E0008091E3019091E40101969093E401809360
:1003F000E3011092E6011092E5018091E3019091F2
:10040000E401CC9768F08091EE019091EF010196A4
:100410009093EF018093EE011092E4011092E301BA
:100420008091EE019091EF01489720F01092EF013A
:100430001092EE0108950F931F939091DF0198138E
:1004400016C08091DE01861314C08091DD018413F3
:1004500012C08091DC01821310C081E0209107015D
:10046000309108012017310749F080E007C080E093
:1004700005C080E003C080E001C080E01F910F91C3
:1004800008958FEF88BB2FEF8FE79DE021508040CC
:100490009040E1F700C0000018BA2FEF8FE79DE011
:1004A000215080409040E1F700C0000008950F9374
:1004B0001F93CF938091DB01811124C180910601AC
:1004C000833009F4B1C030F4813059F0823009F43E
:1004D00099C018C1843009F4CCC0853009F4EEC04D
:1004E00011C182E810DE8BE391E02BDE86EC0BDE9F
:1004F0002091000130910101369527953695279579
:1005000036952795A5ECB0E20E94E60A9295829571
:100510008F7089279F708927805D0BDE20910001F5
:10052000309101013695279536952795ABE7B4E1D3
:100530000E94E60AAC01569547959A01ADECBCECD9
:100540000E94E60A96958795969587959695879544
:100550009C01220F331F880F991F880F991F880F46
:10056000991F820F931F9A01281B390BC901805DC7
:10057000E0DD2091000130910101ADECBCEC0E9466
:10058000E60AAC0156954795569547955695479579
:100590009A010E94E60A9695879596958795969575
:1005A00087959C01220F331F880F991F880F991F71
:1005B000880F991F820F931FFA01E81BF90BCF01D7
:1005C000805DB7DD40910001509101019A01ADECD1
:1005D000BCECFCD7969587959695879596958795CB
:1005E0009C01220F331F880F991F880F991F880FB6
:1005F000991F820F931F9A01281B390BC901805D37
:1006000098DD80C082E87FDD89E491E09ADD86ECA8
:100610007ADDE0910501F0E0EE0FFF1FE95FFE4F8C
:10062000808191818EDD6EC082E86DDD88E591E08C
:1006300088DD87EC68DD02E011E0F8018281CDEC15
:100640008C9F812D1124869586958695805D71DD20
:10065000F80182818C9FC12D1124C695C695C6953F
:10066000CC0F9C2F990F990FC90F8C1B805D61DDFA
:1006700049C082E848DD85E691E063DD87EC43DD33
:1006800002E011E0F8018181CDEC8C9F812D1124D5
:10069000869586958695805D4CDDF80181818C9FDD
:1006A000C12D1124C695C695C695CC0F9C2F990FC8
:1006B000990FC90F8C1B805D3CDD24C081E823DDD0
:1006C00082E791E03EDD86EC1EDD02E011E0F801FC
:1006D0008081CDEC8C9F812D112486958695869501
:1006E000805D27DDF80180818C9FC12D1124C69586
:1006F000C695C695CC0F9C2F990F990FC90F8C1BCF
:10070000805D17DDCF911F910F9108951F920F9279
:100710000FB60F9211240BB60F922F933F934F9366
:100720005F936F937F938F939F93AF93BF93EF9359
:10073000FF938091210190912201892B09F434DEED
:10074000D0DDFF91EF91BF91AF919F918F917F91FC
:100750006F915F914F913F912F910F900BBE0F9032
:100760000FBE0F901F9018951F920F920FB60F9209
:1007700011240BB60F921F932F933F934F935F93C8
:100780006F937F938F939F93AF93BF93CF93DF9399
:10079000EF93FF938091E001811114C081E0809379
:1007A000E0011092F1011092F0011092E601109216
:1007B000E5011092E4011092E3011092EF01109212
:1007C000EE01CDC0813049F41092E00181E090E06B
:1007D0009093220180932101C2C0823009F0BFC0F2
:1007E000809106018330E9F128F4813051F08230A4
:1007F00091F0B5C0843009F46DC0853009F48DC026
:10080000AEC0809100019091010101969093010189
:1008100080930001A4C08091DA01813099F4409165
:100820000501842F90E001962091E20130E0281725
:1008300039070CF094C00D970CF091C04F5F4093B6
:1008400005018DC020910501822F90E001960D9742
:1008500024F081E08093050182C02F5F2093050181
:100860007EC08091DA018130E1F410910401C12F42
:10087000D0E021968091ED0190E08C179D070CF05F
:100880006EC060910001709101018091050190E0BE
:10089000D5DC8C179D070CF462C01F5F1093040118
:1008A0005EC0E2E0F1E0C28160910001709101015F
:1008B000838190E0C3DC2C2F30E02F5F3F4F821705
:1008C000930724F481E08093040149C0CF5FC09373
:1008D000040145C08091DA01813089F4409103011F
:1008E000842F90E001962091E70130E02817390726
:1008F000B4F54897A4F54F5F4093030130C02091B1
:100900000301822F90E0019648971CF0109203019A
:1009100026C02F5F2093030122C08091DA0181302D
:1009200089F440910201842F90E001962091E90121
:1009300030E0281739079CF4CC978CF44F5F409334
:1009400002010DC020910201822F90E00196CC9708
:100950001CF01092020103C02F5F20930201FF914F
:10096000EF91DF91CF91BF91AF919F918F917F9147
:100970006F915F914F913F912F911F910F900BBEFF
:100980000F900FBE0F901F9018951F920F920FB6E9
:100990000F9211248F939F938091E001813091F405
:1009A0008091210190912201892B39F481E090E01E
:1009B00090932201809321010FC010922201109286
:1009C00021010AC0811104C082E08093E00104C0CB
:1009D000823011F41092E0019F918F910F900FBE21
:1009E0000F901F9018951F920F920FB60F9211241F
:1009F0000BB60F922F933F934F935F936F937F9319
:100A00008F939F93AF93BF93CF93DF93EF93FF9316
:100A10008091E0018130E9F48091210190912201DF
:100A2000892B31F481E090E09093220180932101A1
:100A30001092F1011092F0011092E6011092E5017E
:100A40001092E4011092E3011092EF011092EE0176
:100A5000C3C0811102C025DCBFC0823009F0BCC018
:100A600080910601833009F445C028F4813051F0AB
:100A70008230D1F0B1C0843009F469C0853009F406
:100A800089C0AAC080910001909101010197209135
:100A9000EA013091EB018217930708F49DC090930F
:100AA00001018093000198C08091DA01813089F4BE
:100AB00040910501242F30E0215031098091E2015D
:100AC00090E0281739070CF487C041504093050186
:100AD00083C080910501282F30E021503109121682
:100AE000130624F08CE08093050176C0815080933A
:100AF000050172C08091DA01813089F440910401CE
:100B0000242F30E0215031098091ED0190E0281729
:100B100039070CF461C04150409304015DC08091DD
:100B20000401282F30E021503109121613065CF021
:100B30006091000170910101C2E0D1E08B8190E0F1
:100B40007DDB8A8349C081508093040145C0809138
:100B5000DA01813081F440910301242F30E02150EB
:100B600031098091E70190E028173907ACF1415035
:100B70004093030131C080910301282F30E02150C0
:100B8000310922F487E18093030126C081508093CC
:100B9000030122C08091DA01813081F44091020189
:100BA000242F30E0215031098091E90190E028178D
:100BB000390794F04150409302010EC08091020128
:100BC000282F30E02150310922F48BE38093020179
:100BD00003C0815080930201FF91EF91DF91CF918B
:100BE000BF91AF919F918F917F916F915F914F9145
:100BF0003F912F910F900BBE0F900FBE0F901F9043
:100C000018951F920F920FB60F9211240BB60F92E8
:100C10002F933F938F939F93EF93FF938091E001E6
:100C2000823009F085C0809106018F5F80930601B4
:100C3000833001F118F4823039F058C0843071F1FA
:100C4000853009F43FC052C020910001309101016C
:100C50008091EA019091EB012817390741F48091C6
:100C6000E2018093050181E08093DA0161C0109276
:100C7000DA015EC0909105018091E20198130BC0EA
:100C80008091DA01813039F48093DA018091ED01AD
:100C9000809304014DC01092DA014AC09091040182
:100CA0008091ED0198130BC08091DA01813039F405
:100CB0008093DA018091E7018093030139C010929B
:100CC000DA0136C0909103018091E70198130BC0BF
:100CD0008091DA01813039F48093DA018091E90161
:100CE0008093020125C01092DA0122C0863000F103
:100CF00087E08093060181E08093DB01E2E0F1E090
:100D000090819093DF0191819093DE019281909385
:100D1000DD0193819093DC0120910001309101016C
:100D2000309308012093070110821182828383830C
:100D3000FF91EF919F918F913F912F910F900BBE5B
:100D40000F900FBE0F901F9018950F931F93CF9386
:100D5000DF9300D000D000D0CDB7DEB781E49DE4B2
:100D60009A8389831B8280E59DE49D838C831E8208
:100D700080E8C9D92091EA013091EB013695279599
:100D80003695279536952795A5ECB0E21FD4929518
:100D900082958F7089279F708927805DCAD920919D
:100DA000EA013091EB013695279536952795ABE70B
:100DB000B4E10CD4AC01569547959A01ADECBCEC6E
:100DC00005D49695879596958795969587959C01D8
:100DD000220F331F880F991F880F991F880F991FA3
:100DE000820F931F9A01281B390BC901805DA1D97D
:100DF0002091EA013091EB01ADECBCECE7D3AC0102
:100E00005695479556954795569547959A01DED341
:100E10009695879596958795969587959C01220F2F
:100E2000331F880F991F880F991F880F991F820FF2
:100E3000931F9A01281B390BC901805D7AD9409113
:100E4000EA015091EB019A01ADECBCECBFD3969551
:100E5000879596958795969587959C01220F331FC8
:100E6000880F991F880F991F880F991F820F931F52
:100E70009A01281B390BC901805D5BD985E843D9EC
:100E80008091ED018A30D0F01DEC819F812D1124DD
:100E9000869586958695805D4CD98091ED01819FE0
:100EA000112D1124169516951695110F912F990F46
:100EB000990F190F811B805D3CD906C080E339D999
:100EC0008091ED01805D35D98FE233D98091E201C7
:100ED0008A30D0F01DEC819F812D11248695869556
:100EE0008695805D26D98091E201819F112D112484
:100EF000169516951695110F912F990F990F190F99
:100F0000811B805D16D906C080E313D98091E20170
:100F1000805D0FD98BE8F7D8E091E8018E2F90E043
:100F2000FC013197E730F105F0F4EA5BFF4F45C370
:100F300081E891E006D917C085E891E002D913C095
:100F400089E891E0FED80FC08DE891E0FAD80BC097
:100F500081E991E0F6D807C085E991E0F2D803C0B5
:100F600089E991E0EED88091E7018D30E8F080ECDE
:100F7000CAD8CE010496E5D883ECC5D88091E701A4
:100F800090E00C970AE010E0B80104D380E3860FEC
:100F9000D0D88091E70190E00C97B801FBD2805D3A
:100FA000C8D88AE3C6D824C080ECADD8CE0101965B
:100FB000C8D883ECA8D88091E7011DEC819F812DD2
:100FC0001124869586958695805DB3D88091E7013A
:100FD000819F112D1124169516951695110F912F9D
:100FE000990F990F190F811B805DA3D88AE3A1D8AF
:100FF00086EC89D88091E9011DEC819F812D112417
:10100000869586958695805D94D88091E901819F2B
:10101000912D1124969596959695990F292F220F2B
:10102000220F920F891B805D84D88AE382D889ECD5
:101030006AD88091EC01819F812D11248695869537
:101040008695805D76D88091EC01819F112D1124C9
:10105000169516951695110F912F990F990F190F37
:10106000811B805D66D826960FB6F894DEBF0FBE52
:10107000CDBFDF91CF911F910F91089580E843D8A4
:101080002091EE013091EF01ADECBCEC9FD2969532
:1010900087959695879596958795805D4AD84091D6
:1010A000EE015091EF019A01ADECBCEC8FD2969518
:1010B000879596958795969587959C01220F331F66
:1010C000880F991F880F991F880F991F820F931FF0
:1010D0009A01281B390BC901805D2BD888E629D8D5
:1010E00083EC11D82091E3013091E401ADECBCEC2C
:1010F0006DD2969587959695879596958795805DFF
:1011000018D84091E3015091E4019A01ADECBCEC98
:101110005DD29695879596958795969587959C012E
:10112000220F331F880F991F880F991F880F991F4F
:10113000820F931F9A01281B390BC901805D0E9401
:1011400099008AE30E94990086EC0E948300209116
:10115000E5013091E601ADECBCEC38D2969587956F
:101160009695879596958795805D0E949900409108
:10117000E5015091E6019A01ADECBCEC27D29695C1
:10118000879596958795969587959C01220F331F95
:10119000880F991F880F991F880F991F820F931F1F
:1011A0009A01281B390BC901805D0E9499008AE3CE
:1011B0000E94990089EC0E9483002091F0013091F7
:1011C000F101ADECBCEC02D296958795969587958A
:1011D00096958795805D0E9499004091F00150910D
:1011E000F1019A01ADECBCECF1D1969587959695FD
:1011F0008795969587959C01220F331F880F991F1D
:10120000880F991F880F991F820F931F9A01281B1F
:10121000390BC901805D0C9499000895CF9380919A
:10122000DB01882309F428C182E80E9483008DE94C
:1012300091E00E94A10080EC0E94830020910701B0
:10124000309108013695279536952795369527953F
:10125000A5ECB0E2BBD1929582958F7089279F70E3
:101260008927805D0E949900209107013091080133
:101270003695279536952795ABE7B4E1A7D1AC0114
:10128000569547959A01ADECBCECA0D19695879503
:1012900096958795969587959C01220F331F880F09
:1012A000991F880F991F880F991F820F931F9A010A
:1012B000281B390BC901805D0E949900209107010C
:1012C00030910801ADECBCEC81D1AC01569547954D
:1012D00056954795569547959A0178D19695879555
:1012E00096958795969587959C01220F331F880FB9
:1012F000991F880F991F880F991F820F931F9A01BA
:10130000281B390BC901805D0E949900409107019B
:10131000509108019A01ADECBCEC58D19695879597
:1013200096958795969587959C01220F331F880F78
:10133000991F880F991F880F991F820F931F9A0179
:10134000281B390BC901805D0E94990080E20E9430
:1013500099008091DD018A30E0F0CDEC8C9F812DE9
:101360001124869586958695805D0E9499008091CE
:10137000DD018C9FC12D1124C695C695C695CC0F55
:101380009C2F990F990FC90F8C1B805D0E949900AB
:1013900008C080E30E9499008091DD01805D0E9479
:1013A00099008FE20E9499008091DC018A30E0F080
:1013B000CDEC8C9F812D1124869586958695805D38
:1013C0000E9499008091DC018C9FC12D1124C6954B
:1013D000C695C695CC0F9C2F990F990FC90F8C1BE2
:1013E000805D0E94990008C080E30E94990080916E
:1013F000DC01805D0E94990080E20E94990080914A
:10140000DE01CDEC8C9F812D1124869586958695E5
:10141000805D0E9499008091DE018C9F912D1124A6
:10142000969596959695990F292F220F220F920F38
:10143000891B805D0E9499008AE30E949900809137
:10144000DF018C9F812D1124869586958695805D80
:101450000E9499008091DF018C9FC12D1124C695B7
:10146000C695C695CC0F9C2F990F990FC90F8C1B51
:10147000805D0E94990001C01AD8CF910895109202
:10148000E1011092EC018AE08093E9018CE0809305
:10149000E7018FE08093ED0187E08093E80183E02E
:1014A0008093E20184EE97E09093EB018093EA0150
:1014B0000E94EB000E94FB000E94F2000E94B80014
:1014C0000E94AF008CE00E9483008CEC9CE10197AD
:1014D000F1F700C00000F0900601C091E001D0E0FB
:1014E000EE24E394DD24DA940AC08091E001C81769
:1014F00029F00E94AF00C091E00101C0C82F009107
:10150000EA011091EB012091E2014091ED0160911F
:10151000E7018091E9010E941B02813019F40E94C9
:10152000410202C0D130E1F40091EA011091EB01D7
:101530002091E2014091ED016091E7018091E90184
:101540000E941B0281110BC00E945101D8BA8CEC81
:101550009CE10197F1F700C00000DE2D01C0DE2DF7
:101560008091E001813031F018F0823029F010C014
:10157000ECDBBBCF83DDB9CF809106018F1531F055
:101580000E94AF000E94E200F090060147DEADCF5E
:10159000DCDBABCF97FB072E16F4009406D077FD6B
:1015A00008D023D007FC05D03EF4909581959F4F3D
:1015B0000895709561957F4F0895EE0FFF1F0024E9
:1015C000001C0BBE0790F691E02D0994A29FB0017C
:1015D000B39FC001A39F700D811D1124911DB29F67
:1015E000700D811D1124911D0895AA1BBB1B51E193
:1015F00007C0AA1FBB1FA617B70710F0A61BB70B83
:10160000881F991F5A95A9F780959095BC01CD0127
:061610000895F894FFCFDD
:10161600E4070000010101E407A901AD01B101B52C
:1016260001B901BD01C101C501C901CD01D101D574
:101636000101001F001C001F001E001F001E001FCE
:10164600001F001E001F001E001F00414C41524D8E
:10165600207C20594541522000414C41524D207C6E
:10166600204D4F4E54482000414C41524D207C2085
:101676004441592000414C41524D207C20484F5551
:101686005200414C41524D207C204D494E55544507
:10169600004D6F6E005475650057656E0054687591
:1016A60000467269005361740053756E00414C41E7
:1016B600524D204953204F4E004A414E0046454266
:1016C600004D415200415052004D4159004A554E7D
:1016D600004A554C0041554700534550004F43546E
:0A16E600004E4F560044454300003B
:00000001FF
