:100000004CC00000ABC3000053C400007FC400001C
:1000100036C5000061C000005FC000005DC0000088
:100020005BC0000059C0000057C0000055C0000070
:1000300053C0000051C000004FC0000061C3000069
:100040004BC0000049C0000047C0000045C0000090
:1000500043C0000041C000003FC000003DC00000A0
:100060003BC0000039C0000037C0000035C00000B0
:1000700033C0000031C000002FC000002DC00000C0
:100080002BC0000029C0000027C0000078067C06B5
:100090008006840688068C06900611241FBECFEFCA
:1000A000D0E1DEBFCDBF11E0A0E0B1E0E6EAF3E1D0
:1000B00000E00BBF02C007900D92AA3DB107D9F72F
:1000C00021E0AAEDB1E001C01D92A13FB207E1F726
:1000D0000E940B090C94D10993CFE5E6F0E09081E2
:1000E0009460908390819D7F9083908191609083B4
:1000F00096EF9A95F1F78BBB86EF8A95F1F78081A1
:100100008E7F80830895E5E6F0E090819B7F908369
:1001100090819D7F908390819160908396EF9A95D6
:10012000F1F78BBB86EF8A95F1F780818E7F808314
:100130000895D3DF8CEC9CE10197F1F700C000003B
:100140000895CF93DF93EC018881882329F02196CD
:10015000F0DF89918111FCCFDF91CF91089581E08B
:10016000D2DF8CEC9CE10197F1F700C0000008950C
:1001700088E3C9DF8CEC9CE10197F1F700C0000037
:1001800088E3C1DF8CEC9CE10197F1F700C000002F
:1001900088E3B9DF8CEC9CE10197F1F700C0000027
:1001A0008EE0B1DF8CEC9CE10197F1F700C000001C
:1001B00086E0A9DF8CEC9CE10197F1F700C000001C
:1001C000CECF089582E09FDF8CEC9CE10197F1F7A0
:1001D00000C00000089582E087BF8FE083BF8FE8F2
:1001E00081BF08958FEF8ABB9FE09093640087BB27
:1001F00088BB11BA08958FEF89BF8AEA80936A009D
:100200008ABF789408959C0183709927892B91F473
:10021000C90164E670E00E949209892B69F4C90162
:1002200060E971E00E9492099C0181E0232B29F092
:1002300080E0089580E0089581E008950F931F9372
:10024000CF93DF93CDB7DEB768970FB6F894DEBFD4
:100250000FBECDBF8C0198E1E3E2F1E0DE01119623
:1002600001900D929A95E1F70230110521F4CB012E
:10027000CADF811109C0F8013197EE0FFF1FEC0FA3
:10028000FD1F8181928102C08DE190E068960FB6DA
:10029000F894DEBF0FBECDBFDF91CF911F910F91BC
:1002A00008951092DE011092DD011092DC0110928F
:1002B000DB01109208011092070181E08093060192
:1002C0001092DA012091E9013091EA0130930101A5
:1002D00020930001E2E0F1E01082118282838383A7
:1002E00008951F93CF93DF938091E0018F5F843651
:1002F00019F08093E00154C01092E0018091EB016D
:100300008F5F8093EB018C3338F08091E8018F5F31
:100310008093E8011092EB018091E8018C3338F072
:100320008091E6018F5F8093E6011092E801809151
:10033000E601883160F08091EC018F5F8093EC01E1
:100340008091E7018F5F8093E7011092E601809131
:10035000E701883018F081E08093E701C091E9015E
:10036000D091EA011091E101BE01812F90E066DF9A
:100370002091EC0130E08217930734F41F5F109353
:10038000E10181E08093EC018091E1018D3040F04A
:100390002196D093EA01C093E90181E08093E101C5
:1003A000DF91CF911F9108958091EF019091F0011D
:1003B00001968436910528F49093F0018093EF0123
:1003C00008951092F0011092EF018091E401909154
:1003D000E50101969093E5018093E401CC9768F0E4
:1003E0008091E2019091E30101969093E301809363
:1003F000E2011092E5011092E4018091E2019091F6
:10040000E301CC9768F08091ED019091EE010196A7
:100410009093EE018093ED011092E3011092E201BE
:100420008091ED019091EE01489720F01092EE013D
:100430001092ED0108950F931F939091DE01981390
:1004400016C08091DD01861314C08091DC018413F5
:1004500012C08091DB01821310C081E0209107015E
:10046000309108012017310749F080E007C080E093
:1004700005C080E003C080E001C080E01F910F91C3
:1004800008958FEF88BB2FEF8FE79DE021508040CC
:100490009040E1F700C0000018BA2FEF8FE79DE011
:1004A000215080409040E1F700C0000008950F9374
:1004B0001F93CF938091DA0181111EC180910601B3
:1004C000833009F457C028F4813051F0823069F14B
:1004D00013C1843009F460C0853009F4E9C00CC14F
:1004E00081E811DE8BE391E02CDE86EC0CDE02E08D
:1004F00011E0F8018081CDEC8C9F812D112486952F
:1005000086958695805D15DEF80180818C9FC12DD2
:100510001124C695C695C695CC0F9C2F990F990F9F
:10052000C90F8C1B805D05DEE7C082E8ECDD8AE444
:1005300091E007DE87ECE7DD02E011E0F801818160
:10054000CDEC8C9F812D1124869586958695805DB6
:10055000F0DDF80181818C9FC12D1124C695C695CF
:10056000C695CC0F9C2F990F990FC90F8C1B805DDE
:10057000E0DDC2C082E8C7DD87E591E0E2DD86EC20
:10058000C2DDE0910501F0E0EE0FFF1FE95FFE4FD5
:1005900080819181D6DDB0C082E8B5DD86E691E04C
:1005A000D0DD86ECB0DD209100013091010136955F
:1005B00027953695279536952795A5ECB0E2CED6AA
:1005C000929582958F7089279F708927805DB1DD14
:1005D0002091000130910101369527953695279598
:1005E000ABE7B4E1BBD6AC01569547959A01ADECAB
:1005F000BCECB4D6969587959695879596958795F4
:100600009C01220F331F880F991F880F991F880F95
:10061000991F820F931F9A01281B390BC901805D16
:1006200088DD2091000130910101ADECBCEC96D643
:10063000AC015695479556954795569547959A011D
:100640008DD69695879596958795969587959C01D5
:10065000220F331F880F991F880F991F880F991F2A
:10066000820F931FFA01E81BF90BCF01805D61DD5A
:1006700040910001509101019A01ADECBCEC6ED6A5
:100680009695879596958795969587959C01220FC7
:10069000331F880F991F880F991F880F991F820F8A
:1006A000931F9A01281B390BC901805D42DD24C0CC
:1006B00082E829DD84E791E044DD87EC24DD02E077
:1006C00011E0F8018281CDEC8C9F812D112486955B
:1006D00086958695805D2DDDF80182818C9FC12DE8
:1006E0001124C695C695C695CC0F9C2F990F990FCE
:1006F000C90F8C1B805D1DDDCF911F910F91089557
:100700001F920F920FB60F9211240BB60F922F93D8
:100710003F934F935F936F937F938F939F93AF9389
:10072000BF93EF93FF938091210190912201892B38
:1007300009F43ADED6DDFF91EF91BF91AF919F9121
:100740008F917F916F915F914F913F912F910F907A
:100750000BBE0F900FBE0F901F9018951F920F9217
:100760000FB60F9211240BB60F922F933F934F9316
:100770005F936F937F938F939F93AF93BF93CF9329
:10078000EF93FF938091DF01811114C081E080938A
:10079000DF011092F0011092EF011092E50110922A
:1007A000E4011092E3011092E2011092EE01109226
:1007B000ED016AC0813049F41092DF0181E090E0E0
:1007C00090932201809321015FC0823009F05CC0C8
:1007D00080910601833039F128F4813041F0823074
:1007E000A1F052C0843071F18530B1F14DC020913B
:1007F0000201822F90E00196CC971CF0109202012A
:1008000043C02F5F209302013FC020910301822F3C
:1008100090E0019648971CF01092030135C02F5FBD
:100820002093030131C020910501822F90E00196B1
:100830000D9724F081E08093050126C02F5F20935F
:10084000050122C0809100019091010101969093D1
:1008500001018093000118C0E2E0F1E0C2816091E3
:10086000000170910101838190E0E8DC2C2F30E0E1
:100870002F5F3F4F8217930724F481E08093040198
:1008800003C0CF5FC0930401FF91EF91CF91BF915F
:10089000AF919F918F917F916F915F914F913F9118
:1008A0002F910F900BBE0F900FBE0F901F901895B9
:1008B0001F920F920FB60F9211248F939F938091E6
:1008C000DF01813091F48091210190912201892BE7
:1008D00039F481E090E090932201809321010FC0D0
:1008E00010922201109221010AC0811104C082E0FD
:1008F0008093DF0104C0823011F41092DF019F91D8
:100900008F910F900FBE0F901F9018951F920F920E
:100910000FB60F9211240BB60F922F933F934F9364
:100920005F936F937F938F939F93AF93BF93CF9377
:10093000DF93EF93FF938091DF018130E9F48091A1
:10094000210190912201892B31F481E090E0909374
:100950002201809321011092F0011092EF01109278
:10096000E5011092E4011092E3011092E20110926D
:10097000EE011092ED016EC0811102C092DC6AC0DE
:10098000823009F067C080910601833051F128F46C
:10099000813049F08230B1F05DC0843099F185300A
:1009A00009F441C057C080910201282F30E0215046
:1009B000310922F48BE3809302014CC08150809373
:1009C000020148C080910301282F30E021503109F5
:1009D00022F487E1809303013DC08150809303019D
:1009E00039C080910501282F30E0215031091216BD
:1009F000130624F08CE0809305012CC08150809375
:100A0000050128C08091000190910101019720917A
:100A1000E9013091EA0182179307E0F09093010118
:100A20008093000117C080910401282F30E02150ED
:100A30003109121613065CF06091000170910101FA
:100A4000C2E0D1E08B8190E0F9DB8A8303C0815062
:100A500080930401FF91EF91DF91CF91BF91AF910E
:100A60009F918F917F916F915F914F913F912F91C6
:100A70000F900BBE0F900FBE0F901F9018951F92F6
:100A80000F920FB60F9211240BB60F922F933F9334
:100A90008F939F93EF93FF938091DF01823041F515
:100AA000809106018F5F863018F48093060120C084
:100AB00087E08093060181E08093DA01E2E0F1E0D3
:100AC00090819093DE0191819093DD0192819093CA
:100AD000DC0193819093DB012091000130910101B1
:100AE000309308012093070110821182828383834F
:100AF000FF91EF919F918F913F912F910F900BBE9E
:100B00000F900FBE0F901F9018950F931F93CF93C8
:100B1000DF9300D000D000D0CDB7DEB781E49DE4F4
:100B20009A8389831B8280E59DE49D838C831E824A
:100B300080E8E9DA2091E9013091EA0136952795BC
:100B40003695279536952795A5ECB0E207D4929572
:100B500082958F7089279F708927805DEADA2091BE
:100B6000E9013091EA013695279536952795ABE74F
:100B7000B4E1F4D3AC01569547959A01ADECBCECC9
:100B8000EDD39695879596958795969587959C0133
:100B9000220F331F880F991F880F991F880F991FE5
:100BA000820F931F9A01281B390BC901805DC1DA9E
:100BB0002091E9013091EA01ADECBCECCFD3AC015E
:100BC0005695479556954795569547959A01C6D39C
:100BD0009695879596958795969587959C01220F72
:100BE000331F880F991F880F991F880F991F820F35
:100BF000931F9A01281B390BC901805D9ADA409135
:100C0000E9015091EA019A01ADECBCECA7D39695AD
:100C1000879596958795969587959C01220F331F0A
:100C2000880F991F880F991F880F991F820F931F94
:100C30009A01281B390BC901805D7BDA85E863DAEC
:100C40008091EC018A30D0F01DEC819F812D112420
:100C5000869586958695805D6CDA8091EC01819F02
:100C6000112D1124169516951695110F912F990F88
:100C7000990F190F811B805D5CDA06C080E359DA99
:100C80008091EC01805D55DA8FE253DA8091E101C9
:100C90008A30D0F01DEC819F812D11248695869598
:100CA0008695805D46DA8091E101819F112D1124A6
:100CB000169516951695110F912F990F990F190FDB
:100CC000811B805D36DA06C080E333DA8091E10172
:100CD000805D2FDA8BE817DAE091E7018E2F90E044
:100CE000FC013197E730F105F0F4EA5BFF4F2DC3CB
:100CF00081E891E026DA17C085E891E022DA13C096
:100D000089E891E01EDA0FC08DE891E01ADA0BC095
:100D100081E991E016DA07C085E991E012DA03C0B3
:100D200089E991E00EDA8091E6018D30E8F080ECFF
:100D3000EAD9CE01049605DA83ECE5D98091E60183
:100D400090E00C970AE010E0B801ECD280E3860F47
:100D5000F0D98091E60190E00C97B801E3D2805D74
:100D6000E8D98AE3E6D924C080ECCDD9CE0101963A
:100D7000E8D983ECC8D98091E6011DEC819F812DD3
:100D80001124869586958695805DD3D98091E6015C
:100D9000819F112D1124169516951695110F912FDF
:100DA000990F990F190F811B805DC3D98AE3C1D9AF
:100DB00086ECA9D98091E8011DEC819F812D112439
:100DC000869586958695805DB4D98091E801819F4E
:100DD000912D1124969596959695990F292F220F6E
:100DE000220F920F891B805DA4D98AE3A2D989ECD6
:100DF0008AD98091EB01819F812D1124869586955A
:100E00008695805D96D98091EB01819F112D1124EB
:100E1000169516951695110F912F990F990F190F79
:100E2000811B805D86D926960FB6F894DEBF0FBE73
:100E3000CDBFDF91CF911F910F91089580E863D9C5
:100E40002091ED013091EE01ADECBCEC87D296958E
:100E500087959695879596958795805D6AD94091F7
:100E6000ED015091EE019A01ADECBCEC77D2969574
:100E7000879596958795969587959C01220F331FA8
:100E8000880F991F880F991F880F991F820F931F32
:100E90009A01281B390BC901805D4BD988E649D9D5
:100EA00083EC31D92091E2013091E301ADECBCEC4F
:100EB00055D2969587959695879596958795805D59
:100EC00038D94091E2015091E3019A01ADECBCECBC
:100ED00045D29695879596958795969587959C0189
:100EE000220F331F880F991F880F991F880F991F92
:100EF000820F931F9A01281B390BC901805D19D9F4
:100F00008AE317D986ECFFD82091E4013091E501FE
:100F1000ADECBCEC23D296958795969587959695E2
:100F20008795805D06D94091E4015091E5019A01D1
:100F3000ADECBCEC13D296958795969587959695D2
:100F400087959C01220F331F880F991F880F991FC7
:100F5000880F991F820F931F9A01281B390BC90113
:100F6000805DE7D88AE3E5D889ECCDD82091EF0100
:100F70003091F001ADECBCECF1D19695879596954A
:100F8000879596958795805DD4D84091EF015091D3
:100F9000F0019A01ADECBCECE1D196958795969560
:100FA0008795969587959C01220F331F880F991F6F
:100FB000880F991F880F991F820F931F9A01281B72
:100FC000390BC901805DB5C80895CF938091DA01CE
:100FD000882309F41DC182E896D88DE991E0B1D843
:100FE00080EC91D820910701309108013695279522
:100FF0003695279536952795A5ECB0E2AFD1929519
:1010000082958F7089279F708927805D92D8209163
:101010000701309108013695279536952795ABE75E
:10102000B4E19CD1AC01569547959A01ADECBCEC6E
:1010300095D19695879596958795969587959C01D8
:10104000220F331F880F991F880F991F880F991F30
:10105000820F931F9A01281B390BC901805D69D843
:101060002091070130910801ADECBCEC77D1AC01C7
:101070005695479556954795569547959A016ED141
:101080009695879596958795969587959C01220FBD
:10109000331F880F991F880F991F880F991F820F80
:1010A000931F9A01281B390BC901805D42D84091DA
:1010B0000701509108019A01ADECBCEC4FD1969517
:1010C000879596958795969587959C01220F331F56
:1010D000880F991F880F991F880F991F820F931FE0
:1010E0009A01281B390BC901805D23D880E221D8E1
:1010F0008091DC018A30D0F0CDEC8C9F812D1124C1
:10110000869586958695805D14D88091DC018C9FAC
:10111000C12D1124C695C695C695CC0F9C2F990F4D
:10112000990FC90F8C1B805D04D807C080E301D8DC
:101130008091DC01805D0E9499008FE20E949900FD
:101140008091DB018A30E0F0CDEC8C9F812D112461
:10115000869586958695805D0E9499008091DB0139
:101160008C9FC12D1124C695C695C695CC0F9C2F7A
:10117000990F990FC90F8C1B805D0E94990008C0C0
:1011800080E30E9499008091DB01805D0E949900BC
:1011900080E20E9499008091DD01CDEC8C9F812D31
:1011A0001124869586958695805D0E949900809190
:1011B000DD018C9F912D1124969596959695990F0A
:1011C000292F220F220F920F891B805D0E94990008
:1011D0008AE30E9499008091DE018C9F812D112469
:1011E000869586958695805D0E9499008091DE01A6
:1011F0008C9FC12D1124C695C695C695CC0F9C2FEA
:10120000990F990FC90F8C1B805D0E94990001C036
:101210004ED9CF9108951092E0011092EB011092F7
:10122000E80187E18093E6018FE18093EC0187E09C
:101230008093E7018CE08093E10184EE97E0909346
:10124000EA018093E9010E94EB000E94FB000E94EA
:10125000F2000E94B8000E94AF008CE00E94830060
:101260008CEC9CE10197F1F700C00000F0900601C2
:10127000C091DF01D0E0EE24E394DD24DA940AC0CB
:101280008091DF01C81729F00E94AF00C091DF01F3
:1012900001C0C82F0091E9011091EA012091E101FC
:1012A0004091EC016091E6018091E801C4D8813061
:1012B00011F4E7D802C0D130D9F40091E9011091BE
:1012C000EA012091E1014091EC016091E6018091F9
:1012D000E801B1D881110BC00E945101D8BA8CEC41
:1012E0009CE10197F1F700C00000DE2D01C0DE2D6A
:1012F0008091DF01813031F018F0823029F010C088
:1013000004DCBECF9BDDBCCF809106018F1531F090
:101310000E94AF000E94E200F090060156DEB0CFBE
:10132000F4DBAECF97FB072E16F4009406D077FDC2
:1013300008D023D007FC05D03EF4909581959F4FAF
:101340000895709561957F4F0895EE0FFF1F00245B
:10135000001C0BBE0790F691E02D0994A29FB001EE
:10136000B39FC001A39F700D811D1124911DB29FD9
:10137000700D811D1124911D0895AA1BBB1B51E105
:1013800007C0AA1FBB1FA617B70710F0A61BB70BF5
:10139000881F991F5A95A9F780959095BC01CD019A
:0613A0000895F894FFCF50
:1013A600E4070000010101E407A901AD01B101B59F
:1013B60001B901BD01C101C501C901CD01D101D5E7
:1013C6000101001F001C001F001E001F001E001F41
:1013D600001F001E001F001E001F00414C41524D01
:1013E600207C204D494E55544500414C41524D20DC
:1013F6007C20484F555200414C41524D207C204D97
:101406004F4E54482000414C41524D207C205945B6
:1014160041522000414C41524D207C2044415920EC
:10142600004D6F6E005475650057656E0054687503
:1014360000467269005361740053756E00414C4159
:10144600524D204953204F4E004A414E00464542D8
:10145600004D415200415052004D4159004A554EEF
:10146600004A554C0041554700534550004F4354E0
:0A147600004E4F56004445430000AD
:00000001FF
