S019000054696D657220322D20435443206D6F64652E73726563CC
S11300004CC0000067C0000065C0000063C0000071
S113001061C000005FC000005DC000005BC0000064
S113002059C0000057C0000055C0000053C0000074
S113003051C000004FC000004DC000000BC10000C3
S113004049C0000047C0000045C0000043C0000094
S113005041C000003FC000003DC000003BC00000A4
S113006039C0000037C0000035C0000033C00000B4
S113007031C000002FC000002DC000002BC00000C4
S113008029C0000027C0000025C000009C02A00277
S1130090A402A802AC02B002B40211241FBECFEF26
S11300A0D0E1DEBFCDBF11E0A0E0B1E0E2E6F7E0D1
S11300B000E00BBF02C007900D92AC31B107D9F735
S11300C021E0ACE1B1E001C01D92A732B207E1F733
S11300D0D9D245C395CF8FEF8ABB8FE0809364005C
S11300E00895E5E6F0E090819460908390819D7F8F
S11300F0908390819160908396EF9A95F1F78BBBF2
S113010086EF8A95F1F780818E7F80830895E5E6F6
S1130110F0E090819B7F908390819D7F908390817C
S11301209160908396EF9A95F1F78BBB86EF8A9551
S1130130F1F780818E7F80830895D3DF8CEC9CE17E
S11301400197F1F700C000000895CF93DF93EC010D
S11301508881882329F02196F0DF89918111FCCFD1
S1130160DF91CF91089581E0D2DF8CEC9CE101977F
S1130170F1F700C00000089588E3C9DF8CEC9CE12E
S11301800197F1F700C0000088E3C1DF8CEC9CE12B
S11301900197F1F700C0000088E3B9DF8CEC9CE123
S11301A00197F1F700C000008EE0B1DF8CEC9CE118
S11301B00197F1F700C0000086E0A9DF8CEC9CE118
S11301C00197F1F700C00000CECF089582E087BF09
S11301D08FE083BF83E681BF08959C0183709927D4
S11301E0892B81F4C90164E670E07AD2892B61F429
S11301F0C90160E971E074D29C0181E0232B29F0EC
S113020080E0089580E0089581E0089582309105AA
S113021021F08430910551F413C080912301909111
S11302202401DBDF813071F08CE108958630910583
S113023059F08930910551F00B9751F48FE10895ED
S11302408FE108958DE108958FE108958FE1089578
S11302508EE108951F920F920FB60F9211240BB6E0
S11302600F922F933F934F935F936F937F938F934B
S11302709F93AF93BF93CF93EF93FF9380911C0110
S113028090911D0101968039910529F090931D01EB
S113029080931C0152C010921D0110921C01809188
S11302A025018F5F809325018C3338F080912201E2
S11302B08F5F8093220110922501809122018C335B
S11302C039F4809120018F5F8093200110922201E4
S11302D080912001883190F0809126018F5F809376
S11302E02601809121018F5F883019F080932101CC
S11302F003C081E08093210110922001C0911E016E
S11303008C2F90E083DF90912601981730F0CF5F17
S1130310C0931E0181E08093260180911E018C30E0
S113032060F080912301909124010196909324011F
S11303308093230181E080931E01FF91EF91CF917F
S1130340BF91AF919F918F917F916F915F914F91E9
S11303503F912F910F900BBE0F900FBE0F901F90E7
S113036018950F931F93CF93DF9300D000D000D044
S1130370CDB7DEB781E49DE49A8389831B8280E54F
S11303809DE49D838C831E8280E8C1DE209123013D
S113039030912401369527953695279536952795DE
S11303A0A5ECB0E2B9D1929582958F7089279F70A0
S11303B08927805DC2DE2091230130912401369586
S11303C0279536952795ABE7B4E1A6D1AC015695B0
S11303D047959A01ADECBCEC9FD19695879596957F
S11303E08795969587959C01220F331F880F991F37
S11303F0880F991F880F991F820F931F9A01281B3A
S1130400390BC901805D99DE2091230130912401CB
S1130410ADECBCEC81D1AC0156954795569547950A
S1130420569547959A0178D196958795969587958F
S1130430969587959C01220F331F880F991F880F6B
S1130440991F880F991F820F931F9A01281B390B3C
S1130450C901805D72DE40912301509124019A010B
S1130460ADECBCEC59D19695879596958795969564
S113047087959C01220F331F880F991F880F991F9E
S1130480880F991F820F931F9A01281B390BC901EA
S1130490805D53DE85E83BDE809126018A30D0F012
S11304A01DEC819F812D1124869586958695805D0E
S11304B044DE80912601819F112D112416951695F5
S11304C01695110F912F990F990F190F811B805DAC
S11304D034DE02C0805D31DE8FE22FDE80911E01AA
S11304E08A30D0F01DEC819F812D1124869586954C
S11304F08695805D22DE80911E01819F112D11243D
S1130500169516951695110F912F990F990F190F8E
S1130510811B805D12DE02C0805D0FDE8BE8F7DD9B
S1130520E09121018E2F90E0FC013197E730F10535
S1130530F0F4EA5BFF4FE7C080E091E006DE17C00D
S113054084E091E002DE13C088E091E0FEDD0FC09C
S11305508CE091E0FADD0BC080E191E0F6DD07C0AC
S113056084E191E0F2DD03C088E191E0EEDD809169
S113057020018D30E8F080ECCADDCE010496E5DD83
S113058083ECC5DD8091200190E00C970AE010E037
S1130590B801A6D080E3860FD0DD8091200190E0E1
S11305A00C97B8019DD0805DC8DD8AE3C6DD24C008
S11305B080ECADDDCE010196C8DD83ECA8DD809131
S11305C020011DEC819F812D1124869586958695A9
S11305D0805DB3DD80912001819F112D112416953A
S11305E016951695110F912F990F990F190F811BBD
S11305F0805DA3DD8AE3A1DD86EC89DD80912201A3
S11306001DEC819F812D1124869586958695805DAC
S113061094DD80912201819F912D112496959695C8
S11306209695990F292F220F220F920F891B805D17
S113063084DD8AE382DD89EC6ADD80912501819F76
S1130640812D1124869586958695805D76DD809131
S11306502501819F112D1124169516951695110FBC
S1130660912F990F990F190F811B805D66DD2696D6
S11306700FB6F894DEBF0FBECDBFDF91CF911F91AF
S11306800F91089510921F0110921D0110921C01E8
S1130690109225018DE28093220182E18093200152
S11306A08CE18093260182E08093210184E0809391
S11306B01E0184EE97E0909324018093230186DD4C
S11306C08FB780688FBF07DD57DD4DDD8CE01FDD00
S11306D08CEC9CE10197F1F700C0000042DEFECFF4
S11306E097FB072E16F4009406D077FD08D023D08C
S11306F007FC05D03EF4909581959F4F0895709521
S113070061957F4F0895EE0FFF1F0024001C0BBE60
S11307100790F691E02D0994A29FB001B39FC00108
S1130720A39F700D811D1124911DB29F700D811D19
S11307301124911D0895AA1BBB1B51E107C0AA1FD8
S1130740BB1FA617B70710F0A61BB70B881F991F6E
S11307505A95A9F780959095BC01CD010895F89418
S1050760FFCFC5
S11307624D6F6E005475650057656E0054687500D0
S10F0772467269005361740053756E00F8
S9030000FC
