:100000004CC00000B2C3000037C5000063C500004B
:10001000EDC6000061C000005FC000005DC00000D0
:100020005BC0000059C0000057C0000055C0000070
:1000300053C0000051C000004FC0000068C3000062
:100040004BC0000049C0000047C0000045C0000090
:1000500043C0000041C000003FC000003DC00000A0
:100060003BC0000039C0000037C0000035C00000B0
:1000700033C0000031C000002FC000002DC00000C0
:100080002BC0000029C0000027C00000A608AB0854
:10009000B008B508BA08BF08C40811241FBECFEFC6
:1000A000D0E1DEBFCDBF12E0A0E0B1E0E0E3FBE1D4
:1000B00000E00BBF02C007900D92AE36B107D9F732
:1000C00022E0AEE6B2E001C01D92A638B207E1F729
:1000D0000E94BC0C0C94960D93CFE5E6F0E0908165
:1000E0009460908390819D7F9083908191609083B4
:1000F00096EF9A95F1F78BBB86EF8A95F1F78081A1
:100100008E7F80830895E5E6F0E090819B7F908369
:1001100090819D7F908390819160908396EF9A95D6
:10012000F1F78BBB86EF8A95F1F780818E7F808314
:100130000895D3DF8CEC9CE10197F1F700C000003B
:100140000895CF93DF93EC018881882329F02196CD
:10015000F0DF89918111FCCFDF91CF91089581E08B
:10016000D2DF8CEC9CE10197F1F700C0000008950C
:1001700088E3C9DF8CEC9CE10197F1F700C0000037
:1001800088E3C1DF8CEC9CE10197F1F700C000002F
:1001900088E3B9DF8CEC9CE10197F1F700C0000027
:1001A0008EE0B1DF8CEC9CE10197F1F700C000001C
:1001B00086E0A9DF8CEC9CE10197F1F700C000001C
:1001C000CECF089582E09FDF8CEC9CE10197F1F7A0
:1001D00000C00000089582E087BF8FE083BF8FE8F2
:1001E00081BF08958FEF8ABB9FE09093640087BB27
:1001F00088BB11BA08958FEF89BF8AEA80936A009D
:100200008ABF789408959C0183709927892B91F473
:10021000C90164E670E00E94570D892B69F4C90199
:1002200060E971E00E94570D9C0181E0232B29F0C9
:1002300080E0089580E0089581E008950F931F9372
:10024000CF93DF93CDB7DEB768970FB6F894DEBFD4
:100250000FBECDBF8C0198E1E2E3F1E0DE01119623
:1002600001900D929A95E1F70230110521F4CB012E
:10027000CADF811109C0F8013197EE0FFF1FEC0FA3
:10028000FD1F8181928102C08DE190E068960FB6DA
:10029000F894DEBF0FBECDBFDF91CF911F910F91BC
:1002A00008951092730210927202109271021092CD
:1002B0007002109208011092070181E080930601FC
:1002C00010926F0220917E0230917F0230930101E3
:1002D00020930001E2E0F1E01082118282838383A7
:1002E00008951F93CF93DF93809175028F5F8436BB
:1002F00019F08093750254C01092750280918002AB
:100300008F5F809380028C3338F080917D028F5F05
:1003100080937D021092800280917D028C3338F0B0
:1003200080917B028F5F80937B0210927D0280918F
:100330007B02883160F0809181028F5F809381021F
:1003400080917C028F5F80937C0210927B0280916F
:100350007C02883018F081E080937C02C0917E029C
:10036000D0917F0210917602BE01812F90E066DF6E
:100370002091810230E08217930734F41F5F1093BD
:10038000760281E080938102809176028D3040F088
:100390002196D0937F02C0937E0281E08093760203
:1003A000DF91CF911F9108958091840290918502F1
:1003B00001968436910528F49093850280938402F7
:1003C0000895109285021092840280917902909192
:1003D0007A02019690937A0280937902CC9768F022
:1003E00080917702909178020196909378028093A1
:1003F000770210927A02109279028091770290919E
:100400007802CC9768F080918202909183020196E5
:100410009093830280938202109278021092770266
:100420008091820290918302489720F0109283027B
:100430001092820208950F931F9390917302981364
:1004400016C080917202861314C0809171028413C9
:1004500012C080917002821310C081E020910701C8
:10046000309108012017310749F080E007C080E093
:1004700005C080E003C080E001C080E01F910F91C3
:1004800008958FEF88BB2FEF8FE79DE021508040CC
:100490009040E1F700C0000018BA2FEF8FE79DE011
:1004A000215080409040E1F700C0000008950F9374
:1004B0001F93CF9380916F02811125C18091060116
:1004C000833009F4B2C030F4813059F0823009F43D
:1004D0009AC019C1843009F4CDC0853009F4EFC049
:1004E00012C182E810DE8AE491E02BDE86EC0BDE9E
:1004F0002091000130910101369527953695279579
:1005000036952795A5ECB0E20E94730D92958295E1
:100510008F7089279F708927805D0BDE20910001F5
:10052000309101013695279536952795ABE7B4E1D3
:100530000E94730DAC01569547959A01ADECBCEC49
:100540000E94730D969587959695879596958795B4
:100550009C01220F331F880F991F880F991F880F46
:10056000991F820F931F9A01281B390BC901805DC7
:10057000E0DD2091000130910101ADECBCEC0E9466
:10058000730DAC01569547955695479556954795E9
:100590009A010E94730D96958795969587959695E5
:1005A00087959C01220F331F880F991F880F991F71
:1005B000880F991F820F931FFA01E81BF90BCF01D7
:1005C000805DB7DD40910001509101019A01ADECD1
:1005D000BCEC0E94730D9695879596958795969598
:1005E00087959C01220F331F880F991F880F991F31
:1005F000880F991F820F931F9A01281B390BC9017D
:10060000805D97DD80C082E87EDD88E591E099DD40
:1006100086EC79DDE0910501F0E0EE0FFF1FEB5E67
:10062000FE4F808191818DDD6EC082E86CDD87E6B2
:1006300091E087DD87EC67DD02E011E0F80182815F
:10064000CDEC8C9F812D1124869586958695805DB5
:1006500070DDF80182818C9FC12D1124C695C6954D
:10066000C695CC0F9C2F990F990FC90F8C1B805DDD
:1006700060DD49C082E847DD84E791E062DD87EC18
:1006800042DD02E011E0F8018181CDEC8C9F812DEB
:100690001124869586958695805D4BDDF8018181D4
:1006A0008C9FC12D1124C695C695C695CC0F9C2F45
:1006B000990F990FC90F8C1B805D3BDD24C081E829
:1006C00022DD81E891E03DDD86EC1DDD02E011E0F8
:1006D000F8018081CDEC8C9F812D11248695869523
:1006E0008695805D26DDF80180818C9FC12D1124C7
:1006F000C695C695C695CC0F9C2F990F990FC90F1B
:100700008C1B805D16DDCF911F910F9108951F9274
:100710000F920FB60F9211240BB60F922F933F93A7
:100720004F935F936F937F938F939F93AF93BF93F9
:10073000EF93FF9380912F0190913001892B09F461
:1007400033DECFDDFF91EF91BF91AF919F918F91FC
:100750007F916F915F914F913F912F910F900BBEC1
:100760000F900FBE0F901F9018951F920F920FB60B
:100770000F9211240BB60F921F932F933F934F9319
:100780005F936F937F938F939F93AF93BF93CF9319
:10079000DF93EF93FF9380917402811114C081E085
:1007A00080937402109285021092840210927A0251
:1007B00010927902109278021092770210928302BE
:1007C0001092820243C1813049F41092740281E098
:1007D00090E09093300180932F0138C1823009F06E
:1007E000C4C0809106018330E9F128F4813051F0D2
:1007F000823091F02BC1843009F46DC0853009F44A
:100800008FC024C1809100019091010101969093C5
:100810000101809300011AC180916E02813099F428
:1008200040910501842F90E001962091760230E0FE
:10083000281739070CF00AC10D970CF007C14F5F5C
:100840004093050103C120910501822F90E001969C
:100850000D9724F081E080930501F8C02F5F20936D
:100860000501F4C080916E028130E1F41091040121
:10087000C12FD0E021968091810290E08C179D07D6
:100880000CF0E4C0609100017091010180910501BC
:1008900090E0D4DC8C179D070CF4D8C01F5F109338
:1008A0000401D4C0E2E0F1E0C281609100017091E6
:1008B0000101838190E0C2DC2C2F30E02F5F3F4F9D
:1008C0008217930724F481E080930401BFC0CF5FB7
:1008D000C0930401BBC080916E02813099F44091B5
:1008E0000301842F90E0019620917B0230E02817CD
:1008F00039070CF0ABC048970CF0A8C04F5F40938D
:100900000301A4C020910301822F90E00196489733
:100910001CF0109203019AC02F5F2093030196C030
:1009200080916E02813099F440910201842F90E011
:10093000019620917D0230E0281739070CF086C01F
:10094000CC970CF083C04F5F409302017FC0209191
:100950000201822F90E00196CC971CF010920201C8
:1009600075C02F5F2093020171C0833009F06EC003
:1009700080913101833039F128F4813059F082308F
:1009800099F064C0853009F445C0B0F1863009F4AF
:100990004FC05CC080917E0290917F02019690933F
:1009A0007F0280937E0252C020917602822F90E0D7
:1009B00001960D9724F081E08093760247C02F5F67
:1009C0002093760243C0C091810260917E027091B3
:1009D0007F028091760290E031DC2C2F30E02F5F97
:1009E0003F4F8217930724F481E0809381022EC049
:1009F000CF5FC09381022AC020917B02822F90E0BA
:100A0000019648971CF010927B0220C02F5F209324
:100A10007B021CC020917D02822F90E00196CC9732
:100A20001CF010927D0212C02F5F20937D020EC039
:100A300020917C02822F90E00196079724F081E0BC
:100A400080937C0203C02F5F20937C02FF91EF9183
:100A5000DF91CF91BF91AF919F918F917F916F91D6
:100A60005F914F913F912F911F910F900BBE0F906F
:100A70000FBE0F901F9018951F920F920FB60F92F6
:100A800011248F939F9380917402813091F480910F
:100A90002F0190913001892B39F481E090E09093FF
:100AA000300180932F010FC01092300110922F015E
:100AB0000AC0811104C082E08093740204C08230B5
:100AC00011F4109274029F918F910F900FBE0F90AE
:100AD0001F9018951F920F920FB60F9211240BB60C
:100AE0000F922F933F934F935F936F937F938F93C7
:100AF0009F93AF93BF93CF93DF93EF93FF93809137
:100B000074028130E9F480912F0190913001892B9A
:100B100031F481E090E09093300180932F011092A6
:100B200085021092840210927A0210927902109239
:100B3000780210927702109283021092820241C1D1
:100B4000811102C0AEDB3DC1823009F0BFC080918F
:100B50000601833009F445C028F4813051F0823019
:100B6000D1F02FC1843009F469C0853009F48AC0FE
:100B700028C18091000190910101019720917E028E
:100B800030917F028217930708F41BC190930101F3
:100B90008093000116C180916E02813089F44091EA
:100BA0000501242F30E0215031098091760290E038
:100BB000281739070CF405C141504093050101C1C4
:100BC00080910501282F30E02150310912161306BB
:100BD00024F08CE080930501F4C0815080930501DE
:100BE000F0C080916E02813089F440910401242F7D
:100BF00030E0215031098091810290E028173907B7
:100C00000CF4DFC0415040930401DBC0809104012B
:100C1000282F30E021503109121613065CF0609144
:100C2000000170910101C2E0D1E08B8190E006DB10
:100C30008A83C7C0815080930401C3C080916E0233
:100C4000813089F440910301242F30E02150310993
:100C500080917B0290E0281739070CF4B2C0415014
:100C600040930301AEC080910301282F30E0215052
:100C7000310922F487E180930301A3C0815080935E
:100C800003019FC080916E02813089F4409102017E
:100C9000242F30E02150310980917D0290E0281707
:100CA00039070CF48EC04150409302018AC08091F4
:100CB0000201282F30E02150310922F48BE3809388
:100CC00002017FC08150809302017BC0833009F014
:100CD00078C080913101833049F128F4813059F096
:100CE000823099F06AC0853009F447C0B8F1863087
:100CF00009F452C062C080917E0290917F020197F8
:100D000090937F0280937E025CC080917602282FB0
:100D100030E0215031091216130624F08CE0809344
:100D200076024FC08150809376024BC08091810241
:100D3000282F30E021503109121613065CF0609123
:100D40007E0270917F028091760290E077DA809344
:100D5000810237C081508093810233C080917B0231
:100D6000282F30E02150310922F487E180937B0263
:100D700028C0815080937B0224C080917D02282F5F
:100D800030E02150310922F48BE380937D0219C0B9
:100D9000815080937D0215C080917C02282F30E025
:100DA000215031091216130624F081E080937C0251
:100DB00008C0815080937C0204C0D1D980E991E0C1
:100DC000C0D9FF91EF91DF91CF91BF91AF919F91EA
:100DD0008F917F916F915F914F913F912F910F90E4
:100DE0000BBE0F900FBE0F901F9018951F920F9281
:100DF0000FB60F9211240BB60F922F933F938F9340
:100E00009F93EF93FF9380917402811104C083E05C
:100E1000809374029AC0813009F497C0823009F03F
:100E200085C0809106018F5F80930601833001F1B8
:100E300018F4823039F058C0843071F1853009F4EB
:100E40003FC052C0209100013091010180917E028B
:100E500090917F022817390741F4809176028093A0
:100E6000050181E080936E0270C010926E026DC029
:100E7000909105018091760298130BC080916E02CB
:100E8000813039F480936E02809181028093040155
:100E90005CC010926E0259C0909104018091810251
:100EA00098130BC080916E02813039F480936E02EA
:100EB00080917B028093030148C010926E0245C06E
:100EC0009091030180917B0298130BC080916E0278
:100ED000813039F480936E0280917D02809302010B
:100EE00034C010926E0231C0863078F181E0809378
:100EF000060180936F02E2E0F1E09081909373022B
:100F00009181909372029281909371029381909358
:100F1000700220910001309101013093080120936B
:100F2000070110821182828383830FC0833069F4AA
:100F3000809131018F5F873018F48093310105C0B3
:100F400081E08093310110927402FF91EF919F91A3
:100F50008F913F912F910F900BBE0F900FBE0F906E
:100F60001F9018950F931F93CF93DF9300D000D05D
:100F700000D0CDB7DEB781E49DE49A8389831B82DC
:100F800080E59DE49D838C831E8280E8BCD82091FF
:100F90007E0230917F0236952795369527953695B6
:100FA0002795A5ECB0E29FD5929582958F70892701
:100FB0009F708927805DBDD820917E0230917F028D
:100FC0003695279536952795ABE7B4E18CD5AC01DE
:100FD000569547959A01ADECBCEC85D596958795CD
:100FE00096958795969587959C01220F331F880FBC
:100FF000991F880F991F880F991F820F931F9A01BD
:10100000281B390BC901805D94D820917E02309154
:101010007F02ADECBCEC67D5AC0156954795569573
:101020004795569547959A015ED5969587959695DD
:101030008795969587959C01220F331F880F991FDE
:10104000880F991F880F991F820F931F9A01281BE1
:10105000390BC901805D6DD840917E0250917F02AD
:101060009A01ADECBCEC3FD5969587959695879502
:10107000969587959C01220F331F880F991F880F23
:10108000991F880F991F820F931F9A01281B390BF4
:10109000C901805D4ED885E836D8809181028A30BA
:1010A000D0F01DEC819F812D112486958695869523
:1010B000805D3FD880918102819F112D112416956A
:1010C00016951695110F912F990F990F190F811BD6
:1010D000805D2FD806C080E32CD880918102805D8E
:1010E00028D88FE226D8809176028A30D0F01DEC85
:1010F000819F812D1124869586958695805D19D8CE
:1011000080917602819F112D1124169516951695C2
:10111000110F912F990F990F190F811B805D09D81D
:1011200006C080E306D880917602805D02D88BE805
:101130000E948300E0917C028E2F90E0FC013197A9
:10114000E730F10528F5EA5BFF4FC4C489EA91E076
:101150000E94A1001DC08DEA91E00E94A10018C06C
:1011600081EB91E00E94A10013C085EB91E00E9409
:10117000A1000EC089EB91E00E94A10009C08DEB97
:1011800091E00E94A10004C081EC91E00E94A100C6
:1011900080917B028D3018F180EC0E948300CE019B
:1011A00004960E94A10083EC0E94830080917B0240
:1011B00090E00C970AE010E0B80179D480E3860F44
:1011C0000E94990080917B0290E00C97B8016FD447
:1011D000805D0E9499008AE30E9499002AC080ECF9
:1011E0000E948300CE0101960E94A10083EC0E9420
:1011F000830080917B021DEC819F812D11248695B7
:1012000086958695805D0E94990080917B02819FE2
:10121000112D1124169516951695110F912F990FD2
:10122000990F190F811B805D0E9499008AE30E942B
:10123000990086EC0E94830080917D021DEC819FC5
:10124000812D1124869586958695805D0E94990052
:1012500080917D02819F912D11249695969596956A
:10126000990F292F220F220F920F891B805D0E9458
:1012700099008AE30E94990089EC0E948300809182
:101280008002819F812D1124869586958695805DAB
:101290000E94990080918002819F112D1124169542
:1012A00016951695110F912F990F990F190F811BF4
:1012B000805D0E94990026960FB6F894DEBF0FBE9F
:1012C000CDBFDF91CF911F910F91089580E80E94CB
:1012D00083002091820230918302ADECBCEC03D4F8
:1012E000969587959695879596958795805D0E94AA
:1012F000990040918202509183029A01ADECBCECBE
:10130000F2D39695879596958795969587959C01A6
:10131000220F331F880F991F880F991F880F991F5D
:10132000820F931F9A01281B390BC901805D0E940F
:10133000990088E60E94990083EC0E948300209126
:10134000770230917802ADECBCECCDD396958795C1
:101350009695879596958795805D0E949900409116
:101360007702509178029A01ADECBCECBCD3969513
:10137000879596958795969587959C01220F331FA3
:10138000880F991F880F991F880F991F820F931F2D
:101390009A01281B390BC901805D0E9499008AE3DC
:1013A0000E94990086EC0E9483002091790230917E
:1013B0007A02ADECBCEC97D3969587959695879578
:1013C00096958795805D0E94990040917902509191
:1013D0007A029A01ADECBCEC86D3969587959695EA
:1013E0008795969587959C01220F331F880F991F2B
:1013F000880F991F880F991F820F931F9A01281B2E
:10140000390BC901805D0E9499008AE30E9499000E
:1014100089EC0E9483002091840230918502ADEC1A
:10142000BCEC61D39695879596958795969587950B
:10143000805D0E94990040918402509185029A013A
:10144000ADECBCEC50D3969587959695879596957F
:1014500087959C01220F331F880F991F880F991FB2
:10146000880F991F820F931F9A01281B390BC901FE
:10147000805D0C9499000895CF9380916F0288232A
:1014800009F428C182E80E94830085EC91E00E9463
:10149000A10080EC0E948300209107013091080197
:1014A000369527953695279536952795A5ECB0E284
:1014B0001AD3929582958F7089279F708927805DB6
:1014C0000E949900209107013091080136952795D7
:1014D00036952795ABE7B4E106D3AC015695479511
:1014E0009A01ADECBCECFFD29695879596958795C1
:1014F000969587959C01220F331F880F991F880F9F
:10150000991F880F991F820F931F9A01281B390B6F
:10151000C901805D0E949900209107013091080166
:10152000ADECBCECE0D2AC0156954795569547958D
:10153000569547959A01D7D2969587959695879512
:10154000969587959C01220F331F880F991F880F4E
:10155000991F880F991F820F931F9A01281B390B1F
:10156000C901805D0E9499004091070150910801D6
:101570009A01ADECBCECB7D2969587959695879578
:10158000969587959C01220F331F880F991F880F0E
:10159000991F880F991F820F931F9A01281B390BDF
:1015A000C901805D0E94990080E20E9499008091AB
:1015B00071028A30E0F0CDEC8C9F812D112486954C
:1015C00086958695805D0E949900809171028C9F1E
:1015D000C12D1124C695C695C695CC0F9C2F990F89
:1015E000990FC90F8C1B805D0E94990008C080E391
:1015F0000E94990080917102805D0E9499008FE2A3
:101600000E949900809170028A30E0F0CDEC8C9FAE
:10161000812D1124869586958695805D0E9499007E
:10162000809170028C9FC12D1124C695C695C695D8
:10163000CC0F9C2F990F990FC90F8C1B805D0E94B6
:10164000990008C080E30E94990080917002805D3B
:101650000E94990080E20E94990080917202CDEC74
:101660008C9F812D1124869586958695805D0E949C
:101670009900809172028C9F912D112496959695D8
:101680009695990F292F220F220F920F891B805DAB
:101690000E9499008AE30E949900809173028C9FB6
:1016A000812D1124869586958695805D0E949900EE
:1016B000809173028C9FC12D1124C695C695C69545
:1016C000CC0F9C2F990F990FC90F8C1B805D0E9426
:1016D000990002C00E945702CF910895CF93809144
:1016E0003101833009F4B9C030F4813069F08230BF
:1016F00009F49DC03FC1853009F4FFC008F4D5C08E
:10170000863009F422C136C182E80E94830081ED4F
:1017100091E00E94A10086EC0E94830020917E024D
:1017200030917F02369527953695279536952795E2
:10173000A5ECB0E2D8D1929582958F7089279F70E1
:101740008927805D0E94990020917E0230917F025E
:101750003695279536952795ABE7B4E1C4D1AC0112
:10176000569547959A01ADECBCECBDD19695879501
:1017700096958795969587959C01220F331F880F24
:10178000991F880F991F880F991F820F931F9A0125
:10179000281B390BC901805D0E94990020917E02AF
:1017A00030917F02ADECBCEC9ED1AC0156954795D3
:1017B00056954795569547959A0195D19695879553
:1017C00096958795969587959C01220F331F880FD4
:1017D000991F880F991F880F991F820F931F9A01D5
:1017E000281B390BC901805D0E94990040917E023F
:1017F00050917F029A01ADECBCEC75D1969587951E
:1018000096958795969587959C01220F331F880F93
:10181000991F880F991F880F991F820F931F9A0194
:10182000281B390BC901805D0E949900A3C082E882
:101830000E9483008EED91E00E94A10086EC0E9440
:101840008300E0917602F0E0EE0FFF1FEB5EFE4FAB
:10185000808191810E94A1008DC082E80E94830056
:101860008CEE91E00E94A10087EC0E9483008091A1
:101870008102CDEC8C9F812D1124869586958695CD
:10188000805D0E949900809181028C9FC12D11245E
:10189000C695C695C695CC0F9C2F990F990FC90F69
:1018A0008C1B805D0E94990065C082E80E948300C5
:1018B00088EF91E00E94A10087EC0E948300809154
:1018C0007B02CDEC8C9F812D112486958695869583
:1018D000805D0E94990080917B028C9FC12D112414
:1018E000C695C695C695CC0F9C2F990F990FC90F19
:1018F0008C1B805D0E9499003DC081E80E9483009E
:1019000084E092E00E94A10086EC0E948300809116
:101910007D02CDEC8C9F812D112486958695869530
:10192000805D0E94990080917D028C9FC12D1124C1
:10193000C695C695C695CC0F9C2F990F990FC90FC8
:101940008C1B805D0E94990015C081E80E94830075
:1019500082E192E00E94A10086EC0E948300E09167
:101960007C02F0E0EE0FFF1FE95FFE4F8081918166
:101970000E94A100CF9108951092750210928002EA
:101980008AE080937D028CE080937B028FE08093DD
:10199000810285E080937C028093760284EE97E05A
:1019A00090937F0280937E020E94EB000E94FB00D6
:1019B0000E94F2000E94B8000E94AF008CE00E94DA
:1019C00083008CEC9CE10197F1F700C00000E090EF
:1019D0000601F0903101C0917402D0E0DD24D3946F
:1019E000BB24BA94C12C0AC080917402C81729F094
:1019F0000E94AF00C091740201C0C82F00917E0206
:101A000010917F02209176024091810260917B02C9
:101A100080917D020E941B02813019F40E944102D4
:101A200002C0D130E1F400917E0210917F0220913A
:101A300076024091810260917B0280917D020E943A
:101A40001B0281110BC00E945101B8BA8CEC9CE1C1
:101A50000197F1F700C00000DC2D01C0DD2D809161
:101A60007402813041F028F0823039F0833089F0FF
:101A70001CC078DAB9CF2ADCB7CF809106018E1569
:101A800031F00E94AF000E94E200E0900601F4DC19
:101A9000ABCF809131018F1531F00E94AF000E94D1
:101AA000E200F09031011ADE9FCF5CDA9DCF97FB08
:101AB000072E16F4009406D077FD08D023D007FC3B
:101AC00005D03EF4909581959F4F0895709561954E
:101AD0007F4F0895EE0FFF1F0024001C0BBE0790E0
:101AE000F691E02D0994A29FB001B39FC001A39F7E
:101AF000700D811D1124911DB29F700D811D112447
:101B0000911D0895AA1BBB1B51E107C0AA1FBB1F53
:101B1000A617B70710F0A61BB70B881F991F5A9579
:101B2000A9F780959095BC01CD010895F894FFCF59
:101B3000E4070000010101E4072102250229022D2A
:101B4000023102350239023D024102450249024D8D
:101B5000025102550259025D0261026502690201E9
:101B600000011F001C001F001E001F001E001F00A0
:101B70001F001E001F001E001F00414C41524D203F
:101B80007C20594541522000414C41524D207C203F
:101B90004D4F4E54482000414C41524D207C204432
:101BA00041592000414C41524D207C20484F555214
:101BB00000414C41524D207C204D494E555445002A
:101BC000535445502068617320696E636F7272656B
:101BD00063742076616C7565004D6F6E0054756599
:101BE0000057656E00546875004672690053617451
:101BF0000053756E00414C41524D204953204F4EC9
:101C00000054494D45207C205945415220005449FB
:101C10004D45207C204D4F4E5448200054494D45A1
:101C2000207C20444159200054494D45207C2048C7
:101C30004F55520054494D45207C204D494E555436
:101C4000450054494D45207C205745454B4441595A
:101C5000004D4F4E005455450057454E00544855D1
:101C600000465249005341540053554E004A414EDC
:101C700000464542004D415200415052004D4159ED
:101C8000004A554E004A554C0041554700534550B7
:0E1C9000004F4354004E4F56004445430000A1
:00000001FF
