:100000004CC00000AEC400003AC6000066C6000046
:10001000F7C7000061C000005FC000005DC00000C5
:100020005BC0000059C0000057C0000055C0000070
:1000300053C0000051C000004FC0000064C4000065
:100040004BC0000049C0000047C0000045C0000090
:1000500043C0000041C000003FC000003DC00000A0
:100060003BC0000039C0000037C0000035C00000B0
:1000700033C0000031C000002FC000002DC00000C0
:100080002BC0000029C0000027C00000C409C90916
:10009000CE09D309D809DD09E20911241FBECFEF2B
:1000A000D0E1DEBFCDBF12E0A0E0B1E0E8EBFDE1C2
:1000B00000E00BBF02C007900D92A438B107D9F73A
:1000C00022E0A4E8B2E001C01D92AE39B207E1F728
:1000D0000E94DA0D0C94DA0E93CFE5E6F0E0908101
:1000E0009460908390819D7F9083908191609083B4
:1000F00096EF9A95F1F78BBB86EF8A95F1F78081A1
:100100008E7F80830895E5E6F0E090819B7F908369
:1001100090819D7F908390819160908396EF9A95D6
:10012000F1F78BBB86EF8A95F1F780818E7F808314
:100130000895D3DF8CEC9CE10197F1F700C000003B
:100140000895CF93DF93EC018881882329F02196CD
:10015000F0DF89918111FCCFDF91CF91089581E08B
:10016000D2DF8CEC9CE10197F1F700C0000008950C
:1001700088E3C9DF8CEC9CE10197F1F700C0000037
:1001800088E3C1DF8CEC9CE10197F1F700C000002F
:1001900088E3B9DF8CEC9CE10197F1F700C0000027
:1001A0008EE0B1DF8CEC9CE10197F1F700C000001C
:1001B00086E0A9DF8CEC9CE10197F1F700C000001C
:1001C000CECF089582E09FDF8CEC9CE10197F1F7A0
:1001D00000C00000089582E087BF8FE083BF8FE8F2
:1001E00081BF08958FEF8ABB9FE09093640087BB27
:1001F00088BB11BA08958FEF89BF8AEA80936A009D
:100200008ABF789408959C0183709927892B91F473
:10021000C90164E670E00E949B0E892B69F4C90154
:1002200060E971E00E949B0E9C0181E0232B29F084
:1002300080E0089580E0089581E008950F931F9372
:10024000CF93DF93CDB7DEB768970FB6F894DEBFD4
:100250000FBECDBF8C0198E1E1E3F1E0DE01119624
:1002600001900D929A95E1F70230110521F4CB012E
:10027000CADF811109C0F8013197EE0FFF1FEC0FA3
:10028000FD1F8181928102C08DE190E068960FB6DA
:10029000F894DEBF0FBECDBFDF91CF911F910F91BC
:1002A000089510928A021092890210928802109288
:1002B0008702109207011092060110928602109296
:1002C00085021092840280919602909197029093F9
:1002D0000101809300018DE480939402E2E0F1E05B
:1002E0001082118281E08283838308951F93CF93CC
:1002F000DF9380918C028F5F843619F080938C029B
:1003000054C010928C02809198028F5F8093980263
:100310008C3338F0809195028F5F80939502109214
:100320009802809195028C3338F0809192028F5F11
:10033000809392021092950280919202883160F02F
:10034000809199028F5F80939902809193028F5FD1
:10035000809393021092920280919302883018F059
:1003600081E080939302C0919602D0919702109100
:100370008D02BE01812F90E061DF2091990230E073
:100380008217930734F41F5F10938D0281E08093EE
:10039000990280918D028D3040F02196D093970282
:1003A000C093960281E080938D02DF91CF911F91DF
:1003B000089580919C0290919D020196843691054A
:1003C00028F490939D0280939C02089510929D02C0
:1003D00010929C02809190029091910201969093CC
:1003E000910280939002CC9768F080918E02909158
:1003F0008F02019690938F0280938E021092910249
:100400001092900280918E0290918F02CC9768F0AA
:1004100080919A0290919B02019690939B02809307
:100420009A0210928F0210928E0280919A029091FD
:100430009B02489720F010929B0210929A02089516
:100440000F931F93909194029130D1F490918A026E
:10045000981321C08091890286131FC08091880261
:1004600084131DC08091870282131BC081E02091FC
:1004700006013091070120173107B1F080E014C068
:1004800090918A0289130FC081E09091890296179A
:1004900059F080E009C080E007C080E005C080E03E
:1004A00003C080E001C080E01F910F9108958FEF9D
:1004B00088BB2FEF8FE79DE0215080409040E1F70F
:1004C00000C0000018BA2FEF8FE79DE02150804058
:1004D0009040E1F700C0000008950F931F93CF9361
:1004E00080918502811125C180918602833009F4B3
:1004F000B2C030F4813059F0823009F49AC019C189
:10050000843009F4CDC0853009F4EFC012C182E80F
:10051000FADD89E491E015DE86ECF5DD209100013D
:100520003091010136952795369527953695279573
:10053000A5ECB0E20E94B70E929582958F70892744
:100540009F708927805DF5DD2091000130910101C8
:100550003695279536952795ABE7B4E10E94B70EFF
:10056000AC01569547959A01ADECBCEC0E94B70ED4
:100570009695879596958795969587959C01220FD8
:10058000331F880F991F880F991F880F991F820F9B
:10059000931F9A01281B390BC901805DCADD209188
:1005A000000130910101ADECBCEC0E94B70EAC0132
:1005B0005695479556954795569547959A010E94A9
:1005C000B70E9695879596958795969587959C01F4
:1005D000220F331F880F991F880F991F880F991FAB
:1005E000820F931FFA01E81BF90BCF01805DA1DD9B
:1005F00040910001509101019A01ADECBCEC0E94C8
:10060000B70E9695879596958795969587959C01B3
:10061000220F331F880F991F880F991F880F991F6A
:10062000820F931F9A01281B390BC901805D81DD60
:1006300080C082E868DD87E591E083DD86EC63DDDC
:10064000E0910501F0E0EE0FFF1FEC5EFE4F8081B0
:10065000918177DD6EC082E856DD86E691E071DD3E
:1006600087EC51DD02E011E0F8018281CDEC8C9F36
:10067000812D1124869586958695805D5ADDF80139
:1006800082818C9FC12D1124C695C695C695CC0F2D
:100690009C2F990F990FC90F8C1B805D4ADD49C0B3
:1006A00082E831DD83E791E04CDD87EC2CDD02E070
:1006B00011E0F8018181CDEC8C9F812D112486956C
:1006C00086958695805D35DDF80181818C9FC12DF1
:1006D0001124C695C695C695CC0F9C2F990F990FDE
:1006E000C90F8C1B805D25DD24C081E80CDD80E80E
:1006F00091E027DD86EC07DD02E011E0F801808162
:10070000CDEC8C9F812D1124869586958695805DF4
:1007100010DDF80180818C9FC12D1124C695C695EE
:10072000C695CC0F9C2F990F990FC90F8C1B805D1C
:1007300000DDCF911F910F910895EF92FF920F93DB
:100740001F93CF93DF9300D000D000D0CDB7DEB79A
:1007500080918502811159C080918602843019F000
:10076000853051F1C3C082E8CEDC83E791E0E9DC5B
:1007700087ECC9DC0F2EF2E0EF2EF1E0FF2EF02D1A
:10078000F70181811DEC819F812D1124869586952D
:100790008695805DCEDCF7018181819F112D11242A
:1007A000169516951695110F912F990F990F190FF0
:1007B000811B805DBEDC9AC081E8A5DC80E891E009
:1007C000C0DC86ECA0DC0F2EF2E0EF2EF1E0FF2E75
:1007D000F02DF70180811DEC819F812D11248695DC
:1007E00086958695805DA5DCF7018081819F112D1E
:1007F0001124169516951695110F912F990F990F93
:10080000190F811B805D95DC71C08091940281116C
:100810006DC081E49DE49D838C831E8280E59DE410
:100820009A8389831B8282E86EDC8FE891E089DC01
:1008300083EC69DC809189028D30D8F0CE0101967D
:1008400080DC86EC60DC8091890290E00C970AE005
:1008500010E0B8010E949B0E80E3860F6ADC809155
:10086000890290E00C97B8010E949B0E805D61DCCC
:1008700020C0CE01049665DC86EC45DC80918902BF
:100880001DEC819F812D1124869586958695805D2E
:1008900050DC80918902819F112D112416951695A7
:1008A0001695110F912F990F990F190F811B805DCC
:1008B00040DC8AE33EDC80918A021DEC819F812D21
:1008C0001124869586958695805D33DC80918A0219
:1008D000819F112D1124169516951695110F912FA4
:1008E000990F990F190F811B805D23DC26960FB697
:1008F000F894DEBF0FBECDBFDF91CF911F910F9156
:10090000FF90EF9008951F920F920FB60F9211244F
:100910000BB60F922F933F934F935F936F937F93F9
:100920008F939F93AF93BF93EF93FF9380912E018B
:1009300090912F01892B09F43CDDD8DCFF91EF91D8
:10094000BF91AF919F918F917F916F915F914F91E7
:100950003F912F910F900BBE0F900FBE0F901F90E5
:1009600018951F920F920FB60F9211240BB60F928B
:100970001F932F933F934F935F936F937F938F9327
:100980009F93AF93BF93CF93DF93EF93FF938091A8
:100990008B02811114C081E080938B0210929D0222
:1009A00010929C02109291021092900210928F026B
:1009B00010928E0210929B0210929A024AC18130CC
:1009C00049F410928B0281E090E090932F01809384
:1009D0002E013FC1823009F0CBC080918602823067
:1009E000F1F028F4882359F0813079F032C1843055
:1009F00009F474C0D0F1853009F495C02AC181E0B2
:100A0000809394028093860224C18091000190918A
:100A10000101019690930101809300011AC1809118
:100A20008402813099F440910501842F90E0019671
:100A300020918D0230E0281739070CF00AC10D977C
:100A40000CF007C14F5F4093050103C120910501E0
:100A5000822F90E001960D9724F081E080930501AC
:100A6000F8C02F5F20930501F4C08091840281308B
:100A7000E1F410910401C12FD0E0219680919902F8
:100A800090E08C179D070CF0E4C06091000170911C
:100A900001018091050190E0D1DB8C179D070CF4DA
:100AA000D8C01F5F10930401D4C0E2E0F1E0C2811E
:100AB0006091000170910101838190E0BFDB2C2FD8
:100AC00030E02F5F3F4F8217930724F481E080933B
:100AD0000401BFC0CF5FC0930401BBC080918402FA
:100AE000813099F440910301842F90E00196209188
:100AF000920230E0281739070CF0ABC048970CF091
:100B0000A8C04F5F40930301A4C020910301822F2E
:100B100090E0019648971CF0109203019AC02F5F55
:100B20002093030196C080918402813099F4409112
:100B30000201842F90E001962091950230E0281761
:100B400039070CF086C0CC970CF083C04F5F409300
:100B500002017FC020910201822F90E00196CC9784
:100B60001CF01092020175C02F5F2093020171C02A
:100B7000833009F06EC080913001833039F128F460
:100B8000813059F0823099F064C0853009F445C055
:100B9000B0F1863009F44FC05CC08091960290910C
:100BA00097020196909397028093960252C02091EB
:100BB0008D02822F90E001960D9724F081E08093C2
:100BC0008D0247C02F5F20938D0243C0C0919902D0
:100BD000609196027091970280918D0290E02EDBD9
:100BE0002C2F30E02F5F3F4F8217930724F481E0D2
:100BF000809399022EC0CF5FC09399022AC02091A2
:100C00009202822F90E0019648971CF01092920277
:100C100020C02F5F209392021CC020919502822F4A
:100C200090E00196CC971CF01092950212C02F5FB5
:100C3000209395020EC020919302822F90E001969E
:100C4000079724F081E08093930203C02F5F2093E5
:100C50009302FF91EF91DF91CF91BF91AF919F915F
:100C60008F917F916F915F914F913F912F911F9144
:100C70000F900BBE0F900FBE0F901F9018951F92F4
:100C80000F920FB60F9211248F939F9380918B0236
:100C9000813091F480912E0190912F01892B39F4AC
:100CA00081E090E090932F0180932E010FC010926D
:100CB0002F0110922E010AC0811104C082E080939E
:100CC0008B0204C0823011F410928B029F918F919D
:100CD0000F900FBE0F901F9018951F920F920FB696
:100CE0000F9211240BB60F922F933F934F935F9364
:100CF0006F937F938F939F93AF93BF93CF93DF9324
:100D0000EF93FF9380918B028130E9F480912E0163
:100D100090912F01892B31F481E090E090932F0185
:100D200080932E0110929D0210929C0210929102CB
:100D30001092900210928F0210928E0210929B02DB
:100D400010929A0248C1811102C0ABDA44C18230CC
:100D500009F0C6C080918602823039F128F48823D8
:100D600061F0813081F037C1843009F471C008F43A
:100D700042C0853009F490C02EC11092940284E0E4
:100D80008093860228C18091000190910101019712
:100D900020919602309197028217930708F41BC1A5
:100DA000909301018093000116C1809184028130EB
:100DB00089F440910501242F30E0215031098091C0
:100DC0008D0290E0281739070CF405C1415040937B
:100DD000050101C180910501282F30E02150310922
:100DE0001216130624F08CE080930501F4C08150A4
:100DF00080930501F0C080918402813089F4409194
:100E00000401242F30E0215031098091990290E0B3
:100E1000281739070CF4DFC0415040930401DBC0B0
:100E200080910401282F30E0215031091216130659
:100E30005CF06091000170910101C2E0D1E08B8112
:100E400090E0FCD98A83C7C0815080930401C3C05D
:100E500080918402813089F440910301242F30E095
:100E6000215031098091920290E0281739070CF443
:100E7000B2C0415040930301AEC080910301282FBE
:100E800030E02150310922F487E180930301A3C0AF
:100E90008150809303019FC080918402813089F446
:100EA00040910201242F30E02150310980919502B8
:100EB00090E0281739070CF48EC04150409302018E
:100EC0008AC080910201282F30E02150310922F49C
:100ED0008BE3809302017FC08150809302017BC02D
:100EE000833009F078C080913001833049F128F4D3
:100EF000813059F0823099F06AC0853009F447C0DA
:100F0000B8F1863009F452C062C080919602909187
:100F10009702019790939702809396025CC080910C
:100F20008D02282F30E0215031091216130624F0CB
:100F30008CE080938D024FC0815080938D024BC016
:100F400080919902282F30E02150310912161306A2
:100F50005CF0609196027091970280918D0290E012
:100F60006DD98093990237C081508093990233C024
:100F700080919202282F30E02150310922F487E13C
:100F80008093920228C081508093920224C0809165
:100F90009502282F30E02150310922F48BE3809311
:100FA000950219C081508093950215C080919302DB
:100FB000282F30E0215031091216130624F081E069
:100FC0008093930208C081508093930204C0C7D8D5
:100FD0008BE991E0B6D8FF91EF91DF91CF91BF916E
:100FE000AF919F918F917F916F915F914F913F91C1
:100FF0002F910F900BBE0F900FBE0F901F90189562
:101000001F920F920FB60F9211240BB60F922F93CF
:101010003F938F939F93EF93FF9380918B02811166
:1010200004C083E080938B029FC0813009F49CC090
:10103000823009F08AC0809186028F5F8093860299
:1010400090919402913009F05EC0833001F118F460
:10105000823039F058C0843071F1853009F43FC0D6
:1010600052C020910001309101018091960290912F
:1010700097022817390741F480918D02809305016A
:1010800081E08093840270C0109284026DC09091C0
:10109000050180918D0298130BC0809184028130EC
:1010A00039F48093840280919902809304015CC09A
:1010B0001092840259C09091040180919902981372
:1010C0000BC080918402813039F480938402809136
:1010D00092028093030148C01092840245C090910F
:1010E00003018091920298130BC080918402813099
:1010F00039F480938402809195028093020134C078
:101100001092840231C0863078F11092860281E01C
:1011100080938502E2E0F1E0908190938A029181D0
:101120009093890292819093880293819093870291
:1011300020910001309101013093070120930601B5
:1011400010821182828383830FC0833069F480917F
:1011500030018F5F873018F48093300105C081E043
:101160008093300110928B02FF91EF919F918F91AC
:101170003F912F910F900BBE0F900FBE0F901F90BD
:1011800018950F931F93CF93DF9300D000D000D01A
:10119000CDB7DEB781E49DE49A8389831B8280E525
:1011A0009DE49D838C831E8280E80E9483002091B1
:1011B0009602309197023695279536952795369564
:1011C0002795A5ECB0E2D3D5929582958F708927AB
:1011D0009F708927805D0E9499002091960230912E
:1011E00097023695279536952795ABE7B4E1BFD59D
:1011F000AC01569547959A01ADECBCECB8D59695E7
:10120000879596958795969587959C01220F331F14
:10121000880F991F880F991F880F991F820F931F9E
:101220009A01281B390BC901805D0E949900209109
:10123000960230919702ADECBCEC99D5AC01569575
:10124000479556954795569547959A0190D5969509
:10125000879596958795969587959C01220F331FC4
:10126000880F991F880F991F880F991F820F931F4E
:101270009A01281B390BC901805D0E949900409199
:101280009602509197029A01ADECBCEC70D5969500
:10129000879596958795969587959C01220F331F84
:1012A000880F991F880F991F880F991F820F931F0E
:1012B0009A01281B390BC901805D0E94990085E8BD
:1012C0000E948300809199028A30E0F01DEC819F9A
:1012D000812D1124869586958695805D0E949900C2
:1012E00080919902819F112D1124169516951695BE
:1012F000110F912F990F990F190F811B805D0E947B
:10130000990008C080E30E94990080919902805D55
:101310000E9499008FE20E94990080918D028A308C
:10132000E0F01DEC819F812D112486958695869590
:10133000805D0E94990080918D02819F112D112462
:10134000169516951695110F912F990F990F190F44
:10135000811B805D0E94990008C080E30E94990073
:1013600080918D02805D0E9499008BE80E9483002D
:10137000E09193028E2F90E0FC013197E730F10568
:1013800028F5EA5BFF4FEAC484EB91E00E94A100DC
:101390001DC088EB91E00E94A10018C08CEB91E089
:1013A0000E94A10013C080EC91E00E94A1000EC039
:1013B00084EC91E00E94A10009C088EC91E00E94B9
:1013C000A10004C08CEC91E00E94A10080919202E7
:1013D0008D3018F180EC0E948300CE0104960E94AB
:1013E000A10083EC0E9483008091920290E00C9710
:1013F0000AE010E0B8019FD480E3860F0E949900B4
:101400008091920290E00C97B80195D4805D0E9483
:1014100099008AE30E9499002AC080EC0E94830010
:10142000CE0101960E94A10083EC0E94830080916E
:1014300092021DEC819F812D1124869586958695BB
:10144000805D0E94990080919202819F112D11244C
:10145000169516951695110F912F990F990F190F33
:10146000811B805D0E9499008AE30E94990086ECAE
:101470000E948300809195021DEC819F812D112493
:10148000869586958695805D0E949900809195024B
:10149000819F912D1124969596959695990F292FB8
:1014A000220F220F920F891B805D0E9499008AE310
:1014B0000E94990089EC0E94830080919802819F8C
:1014C000812D1124869586958695805D0E949900D0
:1014D00080919802819F112D1124169516951695CD
:1014E000110F912F990F990F190F811B805D0E9489
:1014F000990026960FB6F894DEBF0FBECDBFDF91E0
:10150000CF911F910F91089580E80E948300209150
:101510009A0230919B02ADECBCEC29D4969587954C
:101520009695879596958795805D0E949900409144
:101530009A0250919B029A01ADECBCEC18D496959E
:10154000879596958795969587959C01220F331FD1
:10155000880F991F880F991F880F991F820F931F5B
:101560009A01281B390BC901805D0E94990088E609
:101570000E94990083EC0E94830020918E0230919A
:101580008F02ADECBCECF3D3969587959695879535
:1015900096958795805D0E94990040918E025091AA
:1015A0008F029A01ADECBCECE2D3969587959695A7
:1015B0008795969587959C01220F331F880F991F59
:1015C000880F991F880F991F820F931F9A01281B5C
:1015D000390BC901805D0E9499008AE30E9499003D
:1015E00086EC0E9483002091900230919102ADEC34
:1015F000BCECBDD3969587959695879596958795DE
:10160000805D0E94990040919002509191029A0150
:10161000ADECBCECACD39695879596958795969551
:1016200087959C01220F331F880F991F880F991FE0
:10163000880F991F820F931F9A01281B390BC9012C
:10164000805D0E9499008AE30E94990089EC0E94C3
:10165000830020919C0230919D02ADECBCEC87D3BD
:10166000969587959695879596958795805D0E9426
:10167000990040919C0250919D029A01ADECBCEC06
:1016800076D39695879596958795969587959C019F
:10169000220F331F880F991F880F991F880F991FDA
:1016A000820F931F9A01281B390BC901805D0C948E
:1016B00099000895CF9380918502882309F428C169
:1016C00082E80E9483008FE891E00E94A10080ECF4
:1016D0000E948300209106013091070136952795DD
:1016E0003695279536952795A5ECB0E240D392958F
:1016F00082958F7089279F708927805D0E9499004D
:10170000209106013091070136952795369527954A
:10171000ABE7B4E12CD3AC01569547959A01ADECFB
:10172000BCEC25D396958795969587959695879544
:101730009C01220F331F880F991F880F991F880F54
:10174000991F820F931F9A01281B390BC901805DD5
:101750000E9499002091060130910701ADECBCEC8C
:1017600006D3AC015695479556954795569547959E
:101770009A01FDD29695879596958795969587952A
:101780009C01220F331F880F991F880F991F880F04
:10179000991F820F931F9A01281B390BC901805D85
:1017A0000E94990040910601509107019A01ADEC09
:1017B000BCECDDD2969587959695879596958795FD
:1017C0009C01220F331F880F991F880F991F880FC4
:1017D000991F820F931F9A01281B390BC901805D45
:1017E0000E94990080E20E949900809188028A30CC
:1017F000E0F0CDEC8C9F812D112486958695869501
:10180000805D0E949900809188028C9FC12D1124D7
:10181000C695C695C695CC0F9C2F990F990FC90FE9
:101820008C1B805D0E94990008C080E30E94990093
:1018300080918802805D0E9499008FE20E94990049
:10184000809187028A30E0F0CDEC8C9F812D1124AD
:10185000869586958695805D0E9499008091870285
:101860008C9FC12D1124C695C695C695CC0F9C2F73
:10187000990F990FC90F8C1B805D0E94990008C0B9
:1018800080E30E94990080918702805D0E94990008
:1018900080E20E94990080918902CDEC8C9F812D7D
:1018A0001124869586958695805D0E949900809189
:1018B00089028C9F912D1124969596959695990F56
:1018C000292F220F220F920F891B805D0E94990001
:1018D0008AE30E94990080918A028C9F812D1124B5
:1018E000869586958695805D0E94990080918A02F2
:1018F0008C9FC12D1124C695C695C695CC0F9C2FE3
:10190000990F990FC90F8C1B805D0E94990002C02E
:101910000E946D02CF910895CF9380913001833062
:1019200009F4B9C030F4813069F0823009F49DC007
:101930003FC1853009F4FFC008F4D5C0863009F4F2
:1019400022C136C182E80E94830080ED91E00E94AE
:10195000A10086EC0E9483002091960230919702AC
:10196000369527953695279536952795A5ECB0E2BF
:10197000FED1929582958F7089279F708927805D0F
:101980000E949900209196023091970236952795F2
:1019900036952795ABE7B4E1EAD1AC01569547956A
:1019A0009A01ADECBCECE3D1969587959695879519
:1019B000969587959C01220F331F880F991F880FDA
:1019C000991F880F991F820F931F9A01281B390BAB
:1019D000C901805D0E949900209196023091970282
:1019E000ADECBCECC4D1AC015695479556954795E6
:1019F000569547959A01BBD196958795969587956B
:101A0000969587959C01220F331F880F991F880F89
:101A1000991F880F991F820F931F9A01281B390B5A
:101A2000C901805D0E9499004091960250919702F1
:101A30009A01ADECBCEC9BD19695879596958795D0
:101A4000969587959C01220F331F880F991F880F49
:101A5000991F880F991F820F931F9A01281B390B1A
:101A6000C901805D0E949900A3C082E80E948300A2
:101A70008DED91E00E94A10086EC0E948300E09130
:101A80008D02F0E0EE0FFF1FEC5EFE4F8081918132
:101A90000E94A1008DC082E80E9483008BEE91E03D
:101AA0000E94A10087EC0E94830080919902CDECF6
:101AB0008C9F812D1124869586958695805D0E9448
:101AC0009900809199028C9FC12D1124C695C695CD
:101AD000C695CC0F9C2F990F990FC90F8C1B805D59
:101AE0000E94990065C082E80E94830087EF91E020
:101AF0000E94A10087EC0E94830080919202CDECAD
:101B00008C9F812D1124869586958695805D0E94F7
:101B10009900809192028C9FC12D1124C695C69583
:101B2000C695CC0F9C2F990F990FC90F8C1B805D08
:101B30000E9499003DC081E80E94830083E092E00A
:101B40000E94A10086EC0E94830080919502CDEC5A
:101B50008C9F812D1124869586958695805D0E94A7
:101B60009900809195028C9FC12D1124C695C69530
:101B7000C695CC0F9C2F990F990FC90F8C1B805DB8
:101B80000E94990015C081E80E94830081E192E0E3
:101B90000E94A10086EC0E948300E0919302F0E095
:101BA000EE0FFF1FEA5FFE4F808191810E94A1002E
:101BB000CF91089510928C02109298028AE080933F
:101BC00095028CE0809392028FE08093990285E0E9
:101BD0008093930280938D0284EE97E09093970216
:101BE000809396020E94EB000E94FB000E94F2008C
:101BF0000E94B8000E94AF008CE00E9483008CEC31
:101C00009CE10197F1F700C00000E0908602F0909F
:101C10003001C0918B02D0E0DD24D394BB24BA9470
:101C2000C12C0AC080918B02C81729F00E94AF0016
:101C3000C0918B0201C0C82F0091960210919702AB
:101C400020918D02409199026091920280919502BB
:101C50000E942002813019F40E94570202C0D13044
:101C6000E1F4009196021091970220918D0240912B
:101C7000990260919202809195020E942002811146
:101C80000BC00E945101B8BA8CEC9CE10197F1F7AE
:101C900000C00000DC2D01C0DD2D80918B02813061
:101CA00041F028F0823039F08330B9F142C069DA6E
:101CB000B9CF2ADCB7CF809186028E1531F00E9411
:101CC000AF000E94E200E0908602809186028111BE
:101CD00019C080918502811115C081E80E9483009E
:101CE00080E292E00E94A10081EC0E9483008EE2DB
:101CF00092E00E94A1008AEC0E94830083E392E0BC
:101D00000E94A10080919402813011F4D3DC8ACF2B
:101D1000811188CF0E949D0385CF809130018F155E
:101D200031F00E94AF000E94E200F0903001F4DD3B
:101D300079CF27DA77CF97FB072E16F4009406D0D9
:101D400077FD08D023D007FC05D03EF4909581950F
:101D50009F4F0895709561957F4F0895EE0FFF1F77
:101D60000024001C0BBE0790F691E02D0994A29F61
:101D7000B001B39FC001A39F700D811D1124911D5F
:101D8000B29F700D811D1124911D0895AA1BBB1BCC
:101D900051E107C0AA1FBB1FA617B70710F0A61B6B
:101DA000B70B881F991F5A95A9F780959095BC018C
:081DB000CD010895F894FFCF66
:101DB800E40700000101E40738023C024002440243
:101DC80048024C025002540258025C02600264024B
:101DD80068026C027002740278027C0280020100C0
:101DE800011F001C001F001E001F001E001F001FF7
:101DF800001E001F001E001F00414C41524D207C58
:101E080020594541522000414C41524D207C204DE3
:101E18004F4E54482000414C41524D207C204441B3
:101E2800592000414C41524D207C20484F555200CA
:101E3800414C41524D207C204D494E55544500415E
:101E48004C41524D204953204F4E00535445502089
:101E580068617320696E636F72726563742076615E
:101E68006C7565004D6F6E005475650057656E00A2
:101E780054687500467269005361740053756E00AA
:101E880054494D45207C2059454152200054494D24
:101E980045207C204D4F4E5448200054494D452044
:101EA8007C20444159200054494D45207C20484F0E
:101EB80055520054494D45207C204D494E555445B6
:101EC8000054494D45207C205745454B4441590015
:101ED80054595045204F4620414C41524D004441F1
:101EE80054450054494D45004D4F4E00545545004A
:101EF80057454E0054485500465249005341540036
:101F080053554E004A414E00464542004D4152004D
:101F1800415052004D4159004A554E004A554C0017
:101F280041554700534550004F4354004E4F56000B
:041F380044454300D9
:00000001FF
